{
  "_format": "hh-sol-artifact-1",
  "contractName": "Organise",
  "sourceName": "src/backend/contracts/Donate.sol",
  "abi": [
    {
      "inputs": [],
      "stateMutability": "nonpayable",
      "type": "constructor"
    },
    {
      "inputs": [],
      "name": "_campaignId",
      "outputs": [
        {
          "internalType": "uint256",
          "name": "_value",
          "type": "uint256"
        }
      ],
      "stateMutability": "view",
      "type": "function"
    },
    {
      "inputs": [],
      "name": "campaignIDReturn",
      "outputs": [
        {
          "internalType": "uint256",
          "name": "",
          "type": "uint256"
        }
      ],
      "stateMutability": "view",
      "type": "function"
    },
    {
      "inputs": [
        {
          "internalType": "uint256",
          "name": "",
          "type": "uint256"
        }
      ],
      "name": "campaigns",
      "outputs": [
        {
          "internalType": "string",
          "name": "_ipfsURI",
          "type": "string"
        },
        {
          "internalType": "uint256",
          "name": "_amountRaised",
          "type": "uint256"
        }
      ],
      "stateMutability": "view",
      "type": "function"
    },
    {
      "inputs": [],
      "name": "contractOwner",
      "outputs": [
        {
          "internalType": "address payable",
          "name": "",
          "type": "address"
        }
      ],
      "stateMutability": "view",
      "type": "function"
    },
    {
      "inputs": [
        {
          "internalType": "string",
          "name": "_IpfsURI",
          "type": "string"
        }
      ],
      "name": "createCampaign",
      "outputs": [
        {
          "internalType": "uint256",
          "name": "",
          "type": "uint256"
        }
      ],
      "stateMutability": "nonpayable",
      "type": "function"
    }
  ],
  "bytecode": "0x60a060405234801561001057600080fd5b5060016000819055503373ffffffffffffffffffffffffffffffffffffffff1660808173ffffffffffffffffffffffffffffffffffffffff1660601b8152505060805160601c6106f761006e60003960006101e201526106f76000f3fe608060405234801561001057600080fd5b50600436106100575760003560e01c806311e9da7b1461005c578063141961bc1461007a57806390115792146100ab578063ce606ee0146100c9578063fdbf9ff1146100e7575b600080fd5b610064610117565b60405161007191906104cd565b60405180910390f35b610094600480360381019061008f9190610402565b610128565b6040516100a292919061049d565b60405180910390f35b6100b36101d4565b6040516100c091906104cd565b60405180910390f35b6100d16101e0565b6040516100de9190610482565b60405180910390f35b61010160048036038101906100fc91906103c1565b610204565b60405161010e91906104cd565b60405180910390f35b6000610123600161027d565b905090565b600260205280600052604060002060009150905080600001805461014b906105d8565b80601f0160208091040260200160405190810160405280929190818152602001828054610177906105d8565b80156101c45780601f10610199576101008083540402835291602001916101c4565b820191906000526020600020905b8154815290600101906020018083116101a757829003601f168201915b5050505050908060010154905082565b60018060000154905081565b7f000000000000000000000000000000000000000000000000000000000000000081565b6000610210600161028b565b6040518060400160405280838152602001600081525060026000610234600161027d565b8152602001908152602001600020600082015181600001908051906020019061025e9291906102a1565b5060208201518160010155905050610276600161027d565b9050919050565b600081600001549050919050565b6001816000016000828254019250508190555050565b8280546102ad906105d8565b90600052602060002090601f0160209004810192826102cf5760008555610316565b82601f106102e857805160ff1916838001178555610316565b82800160010185558215610316579182015b828111156103155782518255916020019190600101906102fa565b5b5090506103239190610327565b5090565b5b80821115610340576000816000905550600101610328565b5090565b60006103576103528461050d565b6104e8565b90508281526020810184848401111561036f57600080fd5b61037a848285610596565b509392505050565b600082601f83011261039357600080fd5b81356103a3848260208601610344565b91505092915050565b6000813590506103bb816106aa565b92915050565b6000602082840312156103d357600080fd5b600082013567ffffffffffffffff8111156103ed57600080fd5b6103f984828501610382565b91505092915050565b60006020828403121561041457600080fd5b6000610422848285016103ac565b91505092915050565b6104348161055a565b82525050565b60006104458261053e565b61044f8185610549565b935061045f8185602086016105a5565b61046881610699565b840191505092915050565b61047c8161058c565b82525050565b6000602082019050610497600083018461042b565b92915050565b600060408201905081810360008301526104b7818561043a565b90506104c66020830184610473565b9392505050565b60006020820190506104e26000830184610473565b92915050565b60006104f2610503565b90506104fe828261060a565b919050565b6000604051905090565b600067ffffffffffffffff8211156105285761052761066a565b5b61053182610699565b9050602081019050919050565b600081519050919050565b600082825260208201905092915050565b60006105658261056c565b9050919050565b600073ffffffffffffffffffffffffffffffffffffffff82169050919050565b6000819050919050565b82818337600083830152505050565b60005b838110156105c35780820151818401526020810190506105a8565b838111156105d2576000848401525b50505050565b600060028204905060018216806105f057607f821691505b602082108114156106045761060361063b565b5b50919050565b61061382610699565b810181811067ffffffffffffffff821117156106325761063161066a565b5b80604052505050565b7f4e487b7100000000000000000000000000000000000000000000000000000000600052602260045260246000fd5b7f4e487b7100000000000000000000000000000000000000000000000000000000600052604160045260246000fd5b6000601f19601f8301169050919050565b6106b38161058c565b81146106be57600080fd5b5056fea2646970667358221220f3cba98d5765e624ab63e6517eea0c4e2d9e6769ba24671a0058b11a75f9463364736f6c63430008040033",
  "linkReferences": {},
  "deployedLinkReferences": {}
}