{
  "_format": "hh-sol-artifact-1",
  "contractName": "Organise",
  "sourceName": "src/backend/contracts/Donate.sol",
  "abi": [
    {
      "inputs": [],
      "stateMutability": "nonpayable",
      "type": "constructor"
    },
    {
      "inputs": [],
      "name": "_campaignId",
      "outputs": [
        {
          "internalType": "uint256",
          "name": "_value",
          "type": "uint256"
        }
      ],
      "stateMutability": "view",
      "type": "function"
    },
    {
      "inputs": [],
      "name": "campaignIDReturn",
      "outputs": [
        {
          "internalType": "uint256",
          "name": "",
          "type": "uint256"
        }
      ],
      "stateMutability": "view",
      "type": "function"
    },
    {
      "inputs": [
        {
          "internalType": "uint256",
          "name": "",
          "type": "uint256"
        }
      ],
      "name": "campaigns",
      "outputs": [
        {
          "internalType": "string",
          "name": "_ipfsURI",
          "type": "string"
        },
        {
          "internalType": "uint256",
          "name": "_amountRaised",
          "type": "uint256"
        }
      ],
      "stateMutability": "view",
      "type": "function"
    },
    {
      "inputs": [],
      "name": "contractOwner",
      "outputs": [
        {
          "internalType": "address payable",
          "name": "",
          "type": "address"
        }
      ],
      "stateMutability": "view",
      "type": "function"
    },
    {
      "inputs": [
        {
          "internalType": "string",
          "name": "_IpfsURI",
          "type": "string"
        }
      ],
      "name": "createCampaign",
      "outputs": [
        {
          "internalType": "uint256",
          "name": "",
          "type": "uint256"
        }
      ],
      "stateMutability": "nonpayable",
      "type": "function"
    },
    {
      "inputs": [
        {
          "internalType": "uint256",
          "name": "id",
          "type": "uint256"
        },
        {
          "internalType": "uint256",
          "name": "amount",
          "type": "uint256"
        }
      ],
      "name": "makeDonation",
      "outputs": [],
      "stateMutability": "nonpayable",
      "type": "function"
    }
  ],
  "bytecode": "0x60a060405234801561001057600080fd5b5060016000819055503373ffffffffffffffffffffffffffffffffffffffff1660808173ffffffffffffffffffffffffffffffffffffffff1660601b8152505060805160601c61081061006e600039600061023a01526108106000f3fe608060405234801561001057600080fd5b50600436106100625760003560e01c806311e9da7b14610067578063141961bc14610085578063623560af146100b657806390115792146100d2578063ce606ee0146100f0578063fdbf9ff11461010e575b600080fd5b61006f61013e565b60405161007c9190610561565b60405180910390f35b61009f600480360381019061009a919061045a565b61014f565b6040516100ad929190610531565b60405180910390f35b6100d060048036038101906100cb9190610483565b6101fb565b005b6100da61022c565b6040516100e79190610561565b60405180910390f35b6100f8610238565b6040516101059190610516565b60405180910390f35b61012860048036038101906101239190610419565b61025c565b6040516101359190610561565b60405180910390f35b600061014a60016102d5565b905090565b6002602052806000526040600020600091509050806000018054610172906106c2565b80601f016020809104026020016040519081016040528092919081815260200182805461019e906106c2565b80156101eb5780601f106101c0576101008083540402835291602001916101eb565b820191906000526020600020905b8154815290600101906020018083116101ce57829003601f168201915b5050505050908060010154905082565b8060026000848152602001908152602001600020600101600082825461022191906105ee565b925050819055505050565b60018060000154905081565b7f000000000000000000000000000000000000000000000000000000000000000081565b600061026860016102e3565b604051806040016040528083815260200160008152506002600061028c60016102d5565b815260200190815260200160002060008201518160000190805190602001906102b69291906102f9565b50602082015181600101559050506102ce60016102d5565b9050919050565b600081600001549050919050565b6001816000016000828254019250508190555050565b828054610305906106c2565b90600052602060002090601f016020900481019282610327576000855561036e565b82601f1061034057805160ff191683800117855561036e565b8280016001018555821561036e579182015b8281111561036d578251825591602001919060010190610352565b5b50905061037b919061037f565b5090565b5b80821115610398576000816000905550600101610380565b5090565b60006103af6103aa846105a1565b61057c565b9050828152602081018484840111156103c757600080fd5b6103d2848285610680565b509392505050565b600082601f8301126103eb57600080fd5b81356103fb84826020860161039c565b91505092915050565b600081359050610413816107c3565b92915050565b60006020828403121561042b57600080fd5b600082013567ffffffffffffffff81111561044557600080fd5b610451848285016103da565b91505092915050565b60006020828403121561046c57600080fd5b600061047a84828501610404565b91505092915050565b6000806040838503121561049657600080fd5b60006104a485828601610404565b92505060206104b585828601610404565b9150509250929050565b6104c881610644565b82525050565b60006104d9826105d2565b6104e381856105dd565b93506104f381856020860161068f565b6104fc816107b2565b840191505092915050565b61051081610676565b82525050565b600060208201905061052b60008301846104bf565b92915050565b6000604082019050818103600083015261054b81856104ce565b905061055a6020830184610507565b9392505050565b60006020820190506105766000830184610507565b92915050565b6000610586610597565b905061059282826106f4565b919050565b6000604051905090565b600067ffffffffffffffff8211156105bc576105bb610783565b5b6105c5826107b2565b9050602081019050919050565b600081519050919050565b600082825260208201905092915050565b60006105f982610676565b915061060483610676565b9250827fffffffffffffffffffffffffffffffffffffffffffffffffffffffffffffffff0382111561063957610638610725565b5b828201905092915050565b600061064f82610656565b9050919050565b600073ffffffffffffffffffffffffffffffffffffffff82169050919050565b6000819050919050565b82818337600083830152505050565b60005b838110156106ad578082015181840152602081019050610692565b838111156106bc576000848401525b50505050565b600060028204905060018216806106da57607f821691505b602082108114156106ee576106ed610754565b5b50919050565b6106fd826107b2565b810181811067ffffffffffffffff8211171561071c5761071b610783565b5b80604052505050565b7f4e487b7100000000000000000000000000000000000000000000000000000000600052601160045260246000fd5b7f4e487b7100000000000000000000000000000000000000000000000000000000600052602260045260246000fd5b7f4e487b7100000000000000000000000000000000000000000000000000000000600052604160045260246000fd5b6000601f19601f8301169050919050565b6107cc81610676565b81146107d757600080fd5b5056fea2646970667358221220a1d7b266e40fca8e5cefe60bb983df586d98a1f8e4995c948c7c393e55b735ba64736f6c63430008040033",
  "linkReferences": {},
  "deployedLinkReferences": {}
}