{
  "_format": "hh-sol-artifact-1",
  "contractName": "Organise",
  "sourceName": "src/backend/contracts/Donate.sol",
  "abi": [
    {
      "inputs": [],
      "stateMutability": "nonpayable",
      "type": "constructor"
    },
    {
      "inputs": [],
      "name": "_campaignId",
      "outputs": [
        {
          "internalType": "uint256",
          "name": "_value",
          "type": "uint256"
        }
      ],
      "stateMutability": "view",
      "type": "function"
    },
    {
      "inputs": [],
      "name": "contractOwner",
      "outputs": [
        {
          "internalType": "address payable",
          "name": "",
          "type": "address"
        }
      ],
      "stateMutability": "view",
      "type": "function"
    },
    {
      "inputs": [
        {
          "internalType": "string",
          "name": "_IpfsURI",
          "type": "string"
        },
        {
          "internalType": "address",
          "name": "_toDonate",
          "type": "address"
        }
      ],
      "name": "createCampaign",
      "outputs": [
        {
          "internalType": "uint256",
          "name": "",
          "type": "uint256"
        }
      ],
      "stateMutability": "nonpayable",
      "type": "function"
    }
  ],
  "bytecode": "0x60a060405234801561001057600080fd5b5060016000819055503373ffffffffffffffffffffffffffffffffffffffff1660808173ffffffffffffffffffffffffffffffffffffffff1660601b8152505060805160601c61057d61006e600039600061019d015261057d6000f3fe608060405234801561001057600080fd5b50600436106100415760003560e01c80639011579214610046578063ba9806ee14610064578063ce606ee014610094575b600080fd5b61004e6100b2565b60405161005b9190610390565b60405180910390f35b61007e60048036038101906100799190610303565b6100be565b60405161008b9190610390565b60405180910390f35b61009c61019b565b6040516100a99190610375565b60405180910390f35b60018060000154905081565b60006100ca60016101bf565b6040518060600160405280848152602001600081526020018373ffffffffffffffffffffffffffffffffffffffff168152506002600061010a60016101d5565b815260200190815260200160002060008201518160000190805190602001906101349291906101e3565b506020820151816001015560408201518160020160006101000a81548173ffffffffffffffffffffffffffffffffffffffff021916908373ffffffffffffffffffffffffffffffffffffffff16021790555090505061019360016101d5565b905092915050565b7f000000000000000000000000000000000000000000000000000000000000000081565b6001816000016000828254019250508190555050565b600081600001549050919050565b8280546101ef9061045e565b90600052602060002090601f0160209004810192826102115760008555610258565b82601f1061022a57805160ff1916838001178555610258565b82800160010185558215610258579182015b8281111561025757825182559160200191906001019061023c565b5b5090506102659190610269565b5090565b5b8082111561028257600081600090555060010161026a565b5090565b6000610299610294846103d0565b6103ab565b9050828152602081018484840111156102b157600080fd5b6102bc84828561044f565b509392505050565b6000813590506102d381610530565b92915050565b600082601f8301126102ea57600080fd5b81356102fa848260208601610286565b91505092915050565b6000806040838503121561031657600080fd5b600083013567ffffffffffffffff81111561033057600080fd5b61033c858286016102d9565b925050602061034d858286016102c4565b9150509250929050565b61036081610413565b82525050565b61036f81610445565b82525050565b600060208201905061038a6000830184610357565b92915050565b60006020820190506103a56000830184610366565b92915050565b60006103b56103c6565b90506103c18282610490565b919050565b6000604051905090565b600067ffffffffffffffff8211156103eb576103ea6104f0565b5b6103f48261051f565b9050602081019050919050565b600061040c82610425565b9050919050565b600061041e82610425565b9050919050565b600073ffffffffffffffffffffffffffffffffffffffff82169050919050565b6000819050919050565b82818337600083830152505050565b6000600282049050600182168061047657607f821691505b6020821081141561048a576104896104c1565b5b50919050565b6104998261051f565b810181811067ffffffffffffffff821117156104b8576104b76104f0565b5b80604052505050565b7f4e487b7100000000000000000000000000000000000000000000000000000000600052602260045260246000fd5b7f4e487b7100000000000000000000000000000000000000000000000000000000600052604160045260246000fd5b6000601f19601f8301169050919050565b61053981610401565b811461054457600080fd5b5056fea264697066735822122001da7d1dca33774ddbdf317b41bc56e0227ec5f7ee8d5f23fdb6759c4789db4f64736f6c63430008040033",
  "linkReferences": {},
  "deployedLinkReferences": {}
}