{
  "_format": "hh-sol-artifact-1",
  "contractName": "Treasury",
  "sourceName": "contracts/Treasury.sol",
  "abi": [
    {
      "inputs": [],
      "stateMutability": "nonpayable",
      "type": "constructor"
    },
    {
      "anonymous": false,
      "inputs": [
        {
          "indexed": true,
          "internalType": "address",
          "name": "previousOwner",
          "type": "address"
        },
        {
          "indexed": true,
          "internalType": "address",
          "name": "newOwner",
          "type": "address"
        }
      ],
      "name": "OwnershipTransferred",
      "type": "event"
    },
    {
      "inputs": [],
      "name": "getFunds",
      "outputs": [
        {
          "internalType": "uint256",
          "name": "",
          "type": "uint256"
        }
      ],
      "stateMutability": "view",
      "type": "function"
    },
    {
      "inputs": [],
      "name": "owner",
      "outputs": [
        {
          "internalType": "address",
          "name": "",
          "type": "address"
        }
      ],
      "stateMutability": "view",
      "type": "function"
    },
    {
      "inputs": [
        {
          "internalType": "address",
          "name": "_to",
          "type": "address"
        },
        {
          "internalType": "uint256",
          "name": "_amount",
          "type": "uint256"
        }
      ],
      "name": "releaseFunds",
      "outputs": [],
      "stateMutability": "nonpayable",
      "type": "function"
    },
    {
      "inputs": [],
      "name": "renounceOwnership",
      "outputs": [],
      "stateMutability": "nonpayable",
      "type": "function"
    },
    {
      "inputs": [],
      "name": "totalFunds",
      "outputs": [
        {
          "internalType": "uint256",
          "name": "",
          "type": "uint256"
        }
      ],
      "stateMutability": "view",
      "type": "function"
    },
    {
      "inputs": [
        {
          "internalType": "address",
          "name": "newOwner",
          "type": "address"
        }
      ],
      "name": "transferOwnership",
      "outputs": [],
      "stateMutability": "nonpayable",
      "type": "function"
    }
  ],
  "bytecode": "0x608060405234801561001057600080fd5b5061002d61002261003260201b60201c565b61003a60201b60201c565b6100fe565b600033905090565b60008060009054906101000a900473ffffffffffffffffffffffffffffffffffffffff169050816000806101000a81548173ffffffffffffffffffffffffffffffffffffffff021916908373ffffffffffffffffffffffffffffffffffffffff1602179055508173ffffffffffffffffffffffffffffffffffffffff168173ffffffffffffffffffffffffffffffffffffffff167f8be0079c531659141344cd1fd0a4f28419497f9722a3daafe3b4186f6b6457e060405160405180910390a35050565b6106df8061010d6000396000f3fe608060405234801561001057600080fd5b50600436106100625760003560e01c80634d9b373514610067578063715018a6146100855780638da5cb5b1461008f578063968ed600146100ad578063d6e982e5146100cb578063f2fde38b146100e7575b600080fd5b61006f610103565b60405161007c919061059b565b60405180910390f35b61008d61010b565b005b610097610193565b6040516100a49190610540565b60405180910390f35b6100b56101bc565b6040516100c2919061059b565b60405180910390f35b6100e560048036038101906100e091906104a0565b6101c2565b005b61010160048036038101906100fc9190610477565b610289565b005b600047905090565b610113610381565b73ffffffffffffffffffffffffffffffffffffffff16610131610193565b73ffffffffffffffffffffffffffffffffffffffff1614610187576040517f08c379a000000000000000000000000000000000000000000000000000000000815260040161017e9061057b565b60405180910390fd5b6101916000610389565b565b60008060009054906101000a900473ffffffffffffffffffffffffffffffffffffffff16905090565b60015481565b6101ca610381565b73ffffffffffffffffffffffffffffffffffffffff166101e8610193565b73ffffffffffffffffffffffffffffffffffffffff161461023e576040517f08c379a00000000000000000000000000000000000000000000000000000000081526004016102359061057b565b60405180910390fd5b8173ffffffffffffffffffffffffffffffffffffffff166108fc829081150290604051600060405180830381858888f19350505050158015610284573d6000803e3d6000fd5b505050565b610291610381565b73ffffffffffffffffffffffffffffffffffffffff166102af610193565b73ffffffffffffffffffffffffffffffffffffffff1614610305576040517f08c379a00000000000000000000000000000000000000000000000000000000081526004016102fc9061057b565b60405180910390fd5b600073ffffffffffffffffffffffffffffffffffffffff168173ffffffffffffffffffffffffffffffffffffffff161415610375576040517f08c379a000000000000000000000000000000000000000000000000000000000815260040161036c9061055b565b60405180910390fd5b61037e81610389565b50565b600033905090565b60008060009054906101000a900473ffffffffffffffffffffffffffffffffffffffff169050816000806101000a81548173ffffffffffffffffffffffffffffffffffffffff021916908373ffffffffffffffffffffffffffffffffffffffff1602179055508173ffffffffffffffffffffffffffffffffffffffff168173ffffffffffffffffffffffffffffffffffffffff167f8be0079c531659141344cd1fd0a4f28419497f9722a3daafe3b4186f6b6457e060405160405180910390a35050565b60008135905061045c8161067b565b92915050565b60008135905061047181610692565b92915050565b60006020828403121561048957600080fd5b60006104978482850161044d565b91505092915050565b600080604083850312156104b357600080fd5b60006104c18582860161044d565b92505060206104d285828601610462565b9150509250929050565b6104e5816105c7565b82525050565b60006104f86026836105b6565b915061050382610603565b604082019050919050565b600061051b6020836105b6565b915061052682610652565b602082019050919050565b61053a816105f9565b82525050565b600060208201905061055560008301846104dc565b92915050565b60006020820190508181036000830152610574816104eb565b9050919050565b600060208201905081810360008301526105948161050e565b9050919050565b60006020820190506105b06000830184610531565b92915050565b600082825260208201905092915050565b60006105d2826105d9565b9050919050565b600073ffffffffffffffffffffffffffffffffffffffff82169050919050565b6000819050919050565b7f4f776e61626c653a206e6577206f776e657220697320746865207a65726f206160008201527f6464726573730000000000000000000000000000000000000000000000000000602082015250565b7f4f776e61626c653a2063616c6c6572206973206e6f7420746865206f776e6572600082015250565b610684816105c7565b811461068f57600080fd5b50565b61069b816105f9565b81146106a657600080fd5b5056fea264697066735822122061477373180e49a6229dff55e9e05c34f4d3bb8ef8845e751ea7bcfefd82a16664736f6c63430008040033",
  "linkReferences": {},
  "deployedLinkReferences": {}
}