{
  "_format": "hh-sol-artifact-1",
  "contractName": "DaanNFT",
  "sourceName": "contracts/DaanNFT.sol",
  "abi": [
    {
      "inputs": [],
      "stateMutability": "nonpayable",
      "type": "constructor"
    },
    {
      "anonymous": false,
      "inputs": [
        {
          "indexed": true,
          "internalType": "address",
          "name": "owner",
          "type": "address"
        },
        {
          "indexed": true,
          "internalType": "address",
          "name": "approved",
          "type": "address"
        },
        {
          "indexed": true,
          "internalType": "uint256",
          "name": "tokenId",
          "type": "uint256"
        }
      ],
      "name": "Approval",
      "type": "event"
    },
    {
      "anonymous": false,
      "inputs": [
        {
          "indexed": true,
          "internalType": "address",
          "name": "owner",
          "type": "address"
        },
        {
          "indexed": true,
          "internalType": "address",
          "name": "operator",
          "type": "address"
        },
        {
          "indexed": false,
          "internalType": "bool",
          "name": "approved",
          "type": "bool"
        }
      ],
      "name": "ApprovalForAll",
      "type": "event"
    },
    {
      "anonymous": false,
      "inputs": [
        {
          "indexed": true,
          "internalType": "address",
          "name": "from",
          "type": "address"
        },
        {
          "indexed": true,
          "internalType": "address",
          "name": "to",
          "type": "address"
        },
        {
          "indexed": true,
          "internalType": "uint256",
          "name": "tokenId",
          "type": "uint256"
        }
      ],
      "name": "Transfer",
      "type": "event"
    },
    {
      "inputs": [
        {
          "internalType": "address",
          "name": "to",
          "type": "address"
        },
        {
          "internalType": "uint256",
          "name": "tokenId",
          "type": "uint256"
        }
      ],
      "name": "approve",
      "outputs": [],
      "stateMutability": "nonpayable",
      "type": "function"
    },
    {
      "inputs": [
        {
          "internalType": "address",
          "name": "_reciever",
          "type": "address"
        },
        {
          "internalType": "string",
          "name": "tokenURI",
          "type": "string"
        }
      ],
      "name": "awardNFT",
      "outputs": [
        {
          "internalType": "uint256",
          "name": "",
          "type": "uint256"
        }
      ],
      "stateMutability": "nonpayable",
      "type": "function"
    },
    {
      "inputs": [
        {
          "internalType": "address",
          "name": "owner",
          "type": "address"
        }
      ],
      "name": "balanceOf",
      "outputs": [
        {
          "internalType": "uint256",
          "name": "",
          "type": "uint256"
        }
      ],
      "stateMutability": "view",
      "type": "function"
    },
    {
      "inputs": [],
      "name": "currentTokenId",
      "outputs": [
        {
          "internalType": "uint256",
          "name": "",
          "type": "uint256"
        }
      ],
      "stateMutability": "view",
      "type": "function"
    },
    {
      "inputs": [
        {
          "internalType": "uint256",
          "name": "tokenId",
          "type": "uint256"
        }
      ],
      "name": "getApproved",
      "outputs": [
        {
          "internalType": "address",
          "name": "",
          "type": "address"
        }
      ],
      "stateMutability": "view",
      "type": "function"
    },
    {
      "inputs": [
        {
          "internalType": "address",
          "name": "owner",
          "type": "address"
        },
        {
          "internalType": "address",
          "name": "operator",
          "type": "address"
        }
      ],
      "name": "isApprovedForAll",
      "outputs": [
        {
          "internalType": "bool",
          "name": "",
          "type": "bool"
        }
      ],
      "stateMutability": "view",
      "type": "function"
    },
    {
      "inputs": [],
      "name": "name",
      "outputs": [
        {
          "internalType": "string",
          "name": "",
          "type": "string"
        }
      ],
      "stateMutability": "view",
      "type": "function"
    },
    {
      "inputs": [
        {
          "internalType": "uint256",
          "name": "tokenId",
          "type": "uint256"
        }
      ],
      "name": "ownerOf",
      "outputs": [
        {
          "internalType": "address",
          "name": "",
          "type": "address"
        }
      ],
      "stateMutability": "view",
      "type": "function"
    },
    {
      "inputs": [
        {
          "internalType": "address",
          "name": "from",
          "type": "address"
        },
        {
          "internalType": "address",
          "name": "to",
          "type": "address"
        },
        {
          "internalType": "uint256",
          "name": "tokenId",
          "type": "uint256"
        }
      ],
      "name": "safeTransferFrom",
      "outputs": [],
      "stateMutability": "nonpayable",
      "type": "function"
    },
    {
      "inputs": [
        {
          "internalType": "address",
          "name": "from",
          "type": "address"
        },
        {
          "internalType": "address",
          "name": "to",
          "type": "address"
        },
        {
          "internalType": "uint256",
          "name": "tokenId",
          "type": "uint256"
        },
        {
          "internalType": "bytes",
          "name": "_data",
          "type": "bytes"
        }
      ],
      "name": "safeTransferFrom",
      "outputs": [],
      "stateMutability": "nonpayable",
      "type": "function"
    },
    {
      "inputs": [
        {
          "internalType": "address",
          "name": "operator",
          "type": "address"
        },
        {
          "internalType": "bool",
          "name": "approved",
          "type": "bool"
        }
      ],
      "name": "setApprovalForAll",
      "outputs": [],
      "stateMutability": "nonpayable",
      "type": "function"
    },
    {
      "inputs": [
        {
          "internalType": "bytes4",
          "name": "interfaceId",
          "type": "bytes4"
        }
      ],
      "name": "supportsInterface",
      "outputs": [
        {
          "internalType": "bool",
          "name": "",
          "type": "bool"
        }
      ],
      "stateMutability": "view",
      "type": "function"
    },
    {
      "inputs": [],
      "name": "symbol",
      "outputs": [
        {
          "internalType": "string",
          "name": "",
          "type": "string"
        }
      ],
      "stateMutability": "view",
      "type": "function"
    },
    {
      "inputs": [
        {
          "internalType": "uint256",
          "name": "tokenId",
          "type": "uint256"
        }
      ],
      "name": "tokenURI",
      "outputs": [
        {
          "internalType": "string",
          "name": "",
          "type": "string"
        }
      ],
      "stateMutability": "view",
      "type": "function"
    },
    {
      "inputs": [
        {
          "internalType": "address",
          "name": "from",
          "type": "address"
        },
        {
          "internalType": "address",
          "name": "to",
          "type": "address"
        },
        {
          "internalType": "uint256",
          "name": "tokenId",
          "type": "uint256"
        }
      ],
      "name": "transferFrom",
      "outputs": [],
      "stateMutability": "nonpayable",
      "type": "function"
    }
  ],
  "bytecode": "0x60806040523480156200001157600080fd5b506040518060400160405280600681526020017f4461614e465400000000000000000000000000000000000000000000000000008152506040518060400160405280600381526020017f444e540000000000000000000000000000000000000000000000000000000000815250816000908051906020019062000096929190620000b8565b508060019080519060200190620000af929190620000b8565b505050620001cd565b828054620000c69062000168565b90600052602060002090601f016020900481019282620000ea576000855562000136565b82601f106200010557805160ff191683800117855562000136565b8280016001018555821562000136579182015b828111156200013557825182559160200191906001019062000118565b5b50905062000145919062000149565b5090565b5b80821115620001645760008160009055506001016200014a565b5090565b600060028204905060018216806200018157607f821691505b602082108114156200019857620001976200019e565b5b50919050565b7f4e487b7100000000000000000000000000000000000000000000000000000000600052602260045260246000fd5b612bd280620001dd6000396000f3fe608060405234801561001057600080fd5b50600436106100f45760003560e01c80636352211e11610097578063a22cb46511610066578063a22cb46514610297578063b88d4fde146102b3578063c87b56dd146102cf578063e985e9c5146102ff576100f4565b80636352211e146101e95780636ed5a48e1461021957806370a082311461024957806395d89b4114610279576100f4565b8063081812fc116100d3578063081812fc14610165578063095ea7b31461019557806323b872dd146101b157806342842e0e146101cd576100f4565b80629a9b7b146100f957806301ffc9a71461011757806306fdde0314610147575b600080fd5b61010161032f565b60405161010e91906122c2565b60405180910390f35b610131600480360381019061012c9190611c7f565b610340565b60405161013e9190612085565b60405180910390f35b61014f610422565b60405161015c91906120a0565b60405180910390f35b61017f600480360381019061017a9190611cd1565b6104b4565b60405161018c919061201e565b60405180910390f35b6101af60048036038101906101aa9190611c43565b610539565b005b6101cb60048036038101906101c69190611ae9565b610651565b005b6101e760048036038101906101e29190611ae9565b6106b1565b005b61020360048036038101906101fe9190611cd1565b6106d1565b604051610210919061201e565b60405180910390f35b610233600480360381019061022e9190611bef565b610783565b60405161024091906122c2565b60405180910390f35b610263600480360381019061025e9190611a84565b6107ba565b60405161027091906122c2565b60405180910390f35b610281610872565b60405161028e91906120a0565b60405180910390f35b6102b160048036038101906102ac9190611bb3565b610904565b005b6102cd60048036038101906102c89190611b38565b61091a565b005b6102e960048036038101906102e49190611cd1565b61097c565b6040516102f691906120a0565b60405180910390f35b61031960048036038101906103149190611aad565b610ace565b6040516103269190612085565b60405180910390f35b600061033b6007610b62565b905090565b60007f80ac58cd000000000000000000000000000000000000000000000000000000007bffffffffffffffffffffffffffffffffffffffffffffffffffffffff1916827bffffffffffffffffffffffffffffffffffffffffffffffffffffffff1916148061040b57507f5b5e139f000000000000000000000000000000000000000000000000000000007bffffffffffffffffffffffffffffffffffffffffffffffffffffffff1916827bffffffffffffffffffffffffffffffffffffffffffffffffffffffff1916145b8061041b575061041a82610b70565b5b9050919050565b60606000805461043190612518565b80601f016020809104026020016040519081016040528092919081815260200182805461045d90612518565b80156104aa5780601f1061047f576101008083540402835291602001916104aa565b820191906000526020600020905b81548152906001019060200180831161048d57829003601f168201915b5050505050905090565b60006104bf82610bda565b6104fe576040517f08c379a00000000000000000000000000000000000000000000000000000000081526004016104f590612242565b60405180910390fd5b6004600083815260200190815260200160002060009054906101000a900473ffffffffffffffffffffffffffffffffffffffff169050919050565b6000610544826106d1565b90508073ffffffffffffffffffffffffffffffffffffffff168373ffffffffffffffffffffffffffffffffffffffff1614156105b5576040517f08c379a00000000000000000000000000000000000000000000000000000000081526004016105ac90612282565b60405180910390fd5b8073ffffffffffffffffffffffffffffffffffffffff166105d4610c46565b73ffffffffffffffffffffffffffffffffffffffff1614806106035750610602816105fd610c46565b610ace565b5b610642576040517f08c379a000000000000000000000000000000000000000000000000000000000815260040161063990612182565b60405180910390fd5b61064c8383610c4e565b505050565b61066261065c610c46565b82610d07565b6106a1576040517f08c379a0000000000000000000000000000000000000000000000000000000008152600401610698906122a2565b60405180910390fd5b6106ac838383610de5565b505050565b6106cc8383836040518060200160405280600081525061091a565b505050565b6000806002600084815260200190815260200160002060009054906101000a900473ffffffffffffffffffffffffffffffffffffffff169050600073ffffffffffffffffffffffffffffffffffffffff168173ffffffffffffffffffffffffffffffffffffffff16141561077a576040517f08c379a0000000000000000000000000000000000000000000000000000000008152600401610771906121c2565b60405180910390fd5b80915050919050565b6000806107906007610b62565b905061079c848261104c565b6107a68184611226565b6107b0600761129a565b8091505092915050565b60008073ffffffffffffffffffffffffffffffffffffffff168273ffffffffffffffffffffffffffffffffffffffff16141561082b576040517f08c379a0000000000000000000000000000000000000000000000000000000008152600401610822906121a2565b60405180910390fd5b600360008373ffffffffffffffffffffffffffffffffffffffff1673ffffffffffffffffffffffffffffffffffffffff168152602001908152602001600020549050919050565b60606001805461088190612518565b80601f01602080910402602001604051908101604052809291908181526020018280546108ad90612518565b80156108fa5780601f106108cf576101008083540402835291602001916108fa565b820191906000526020600020905b8154815290600101906020018083116108dd57829003601f168201915b5050505050905090565b61091661090f610c46565b83836112b0565b5050565b61092b610925610c46565b83610d07565b61096a576040517f08c379a0000000000000000000000000000000000000000000000000000000008152600401610961906122a2565b60405180910390fd5b6109768484848461141d565b50505050565b606061098782610bda565b6109c6576040517f08c379a00000000000000000000000000000000000000000000000000000000081526004016109bd90612222565b60405180910390fd5b60006006600084815260200190815260200160002080546109e690612518565b80601f0160208091040260200160405190810160405280929190818152602001828054610a1290612518565b8015610a5f5780601f10610a3457610100808354040283529160200191610a5f565b820191906000526020600020905b815481529060010190602001808311610a4257829003601f168201915b505050505090506000610a70611479565b9050600081511415610a86578192505050610ac9565b600082511115610abb578082604051602001610aa3929190611ffa565b60405160208183030381529060405292505050610ac9565b610ac484611490565b925050505b919050565b6000600560008473ffffffffffffffffffffffffffffffffffffffff1673ffffffffffffffffffffffffffffffffffffffff16815260200190815260200160002060008373ffffffffffffffffffffffffffffffffffffffff1673ffffffffffffffffffffffffffffffffffffffff16815260200190815260200160002060009054906101000a900460ff16905092915050565b600081600001549050919050565b60007f01ffc9a7000000000000000000000000000000000000000000000000000000007bffffffffffffffffffffffffffffffffffffffffffffffffffffffff1916827bffffffffffffffffffffffffffffffffffffffffffffffffffffffff1916149050919050565b60008073ffffffffffffffffffffffffffffffffffffffff166002600084815260200190815260200160002060009054906101000a900473ffffffffffffffffffffffffffffffffffffffff1673ffffffffffffffffffffffffffffffffffffffff1614159050919050565b600033905090565b816004600083815260200190815260200160002060006101000a81548173ffffffffffffffffffffffffffffffffffffffff021916908373ffffffffffffffffffffffffffffffffffffffff160217905550808273ffffffffffffffffffffffffffffffffffffffff16610cc1836106d1565b73ffffffffffffffffffffffffffffffffffffffff167f8c5be1e5ebec7d5bd14f71427d1e84f3dd0314c0f7b2291e5b200ac8c7c3b92560405160405180910390a45050565b6000610d1282610bda565b610d51576040517f08c379a0000000000000000000000000000000000000000000000000000000008152600401610d4890612162565b60405180910390fd5b6000610d5c836106d1565b90508073ffffffffffffffffffffffffffffffffffffffff168473ffffffffffffffffffffffffffffffffffffffff161480610d9e5750610d9d8185610ace565b5b80610ddc57508373ffffffffffffffffffffffffffffffffffffffff16610dc4846104b4565b73ffffffffffffffffffffffffffffffffffffffff16145b91505092915050565b8273ffffffffffffffffffffffffffffffffffffffff16610e05826106d1565b73ffffffffffffffffffffffffffffffffffffffff1614610e5b576040517f08c379a0000000000000000000000000000000000000000000000000000000008152600401610e52906120e2565b60405180910390fd5b600073ffffffffffffffffffffffffffffffffffffffff168273ffffffffffffffffffffffffffffffffffffffff161415610ecb576040517f08c379a0000000000000000000000000000000000000000000000000000000008152600401610ec290612122565b60405180910390fd5b610ed6838383611537565b610ee1600082610c4e565b6001600360008573ffffffffffffffffffffffffffffffffffffffff1673ffffffffffffffffffffffffffffffffffffffff1681526020019081526020016000206000828254610f31919061242e565b925050819055506001600360008473ffffffffffffffffffffffffffffffffffffffff1673ffffffffffffffffffffffffffffffffffffffff1681526020019081526020016000206000828254610f8891906123a7565b92505081905550816002600083815260200190815260200160002060006101000a81548173ffffffffffffffffffffffffffffffffffffffff021916908373ffffffffffffffffffffffffffffffffffffffff160217905550808273ffffffffffffffffffffffffffffffffffffffff168473ffffffffffffffffffffffffffffffffffffffff167fddf252ad1be2c89b69c2b068fc378daa952ba7f163c4a11628f55a4df523b3ef60405160405180910390a461104783838361153c565b505050565b600073ffffffffffffffffffffffffffffffffffffffff168273ffffffffffffffffffffffffffffffffffffffff1614156110bc576040517f08c379a00000000000000000000000000000000000000000000000000000000081526004016110b390612202565b60405180910390fd5b6110c581610bda565b15611105576040517f08c379a00000000000000000000000000000000000000000000000000000000081526004016110fc90612102565b60405180910390fd5b61111160008383611537565b6001600360008473ffffffffffffffffffffffffffffffffffffffff1673ffffffffffffffffffffffffffffffffffffffff168152602001908152602001600020600082825461116191906123a7565b92505081905550816002600083815260200190815260200160002060006101000a81548173ffffffffffffffffffffffffffffffffffffffff021916908373ffffffffffffffffffffffffffffffffffffffff160217905550808273ffffffffffffffffffffffffffffffffffffffff16600073ffffffffffffffffffffffffffffffffffffffff167fddf252ad1be2c89b69c2b068fc378daa952ba7f163c4a11628f55a4df523b3ef60405160405180910390a46112226000838361153c565b5050565b61122f82610bda565b61126e576040517f08c379a0000000000000000000000000000000000000000000000000000000008152600401611265906121e2565b60405180910390fd5b806006600084815260200190815260200160002090805190602001906112959291906118a8565b505050565b6001816000016000828254019250508190555050565b8173ffffffffffffffffffffffffffffffffffffffff168373ffffffffffffffffffffffffffffffffffffffff16141561131f576040517f08c379a000000000000000000000000000000000000000000000000000000000815260040161131690612142565b60405180910390fd5b80600560008573ffffffffffffffffffffffffffffffffffffffff1673ffffffffffffffffffffffffffffffffffffffff16815260200190815260200160002060008473ffffffffffffffffffffffffffffffffffffffff1673ffffffffffffffffffffffffffffffffffffffff16815260200190815260200160002060006101000a81548160ff0219169083151502179055508173ffffffffffffffffffffffffffffffffffffffff168373ffffffffffffffffffffffffffffffffffffffff167f17307eab39ab6107e8899845ad3d59bd9653f200f220920489ca2b5937696c31836040516114109190612085565b60405180910390a3505050565b611428848484610de5565b61143484848484611541565b611473576040517f08c379a000000000000000000000000000000000000000000000000000000000815260040161146a906120c2565b60405180910390fd5b50505050565b606060405180602001604052806000815250905090565b606061149b82610bda565b6114da576040517f08c379a00000000000000000000000000000000000000000000000000000000081526004016114d190612262565b60405180910390fd5b60006114e4611479565b90506000815111611504576040518060200160405280600081525061152f565b8061150e846116d8565b60405160200161151f929190611ffa565b6040516020818303038152906040525b915050919050565b505050565b505050565b60006115628473ffffffffffffffffffffffffffffffffffffffff16611885565b156116cb578373ffffffffffffffffffffffffffffffffffffffff1663150b7a0261158b610c46565b8786866040518563ffffffff1660e01b81526004016115ad9493929190612039565b602060405180830381600087803b1580156115c757600080fd5b505af19250505080156115f857506040513d601f19601f820116820180604052508101906115f59190611ca8565b60015b61167b573d8060008114611628576040519150601f19603f3d011682016040523d82523d6000602084013e61162d565b606091505b50600081511415611673576040517f08c379a000000000000000000000000000000000000000000000000000000000815260040161166a906120c2565b60405180910390fd5b805181602001fd5b63150b7a0260e01b7bffffffffffffffffffffffffffffffffffffffffffffffffffffffff1916817bffffffffffffffffffffffffffffffffffffffffffffffffffffffff1916149150506116d0565b600190505b949350505050565b60606000821415611720576040518060400160405280600181526020017f30000000000000000000000000000000000000000000000000000000000000008152509050611880565b600082905060005b6000821461175257808061173b9061257b565b915050600a8261174b91906123fd565b9150611728565b60008167ffffffffffffffff811115611794577f4e487b7100000000000000000000000000000000000000000000000000000000600052604160045260246000fd5b6040519080825280601f01601f1916602001820160405280156117c65781602001600182028036833780820191505090505b5090505b60008514611879576001826117df919061242e565b9150600a856117ee91906125c4565b60306117fa91906123a7565b60f81b818381518110611836577f4e487b7100000000000000000000000000000000000000000000000000000000600052603260045260246000fd5b60200101907effffffffffffffffffffffffffffffffffffffffffffffffffffffffffffff1916908160001a905350600a8561187291906123fd565b94506117ca565b8093505050505b919050565b6000808273ffffffffffffffffffffffffffffffffffffffff163b119050919050565b8280546118b490612518565b90600052602060002090601f0160209004810192826118d6576000855561191d565b82601f106118ef57805160ff191683800117855561191d565b8280016001018555821561191d579182015b8281111561191c578251825591602001919060010190611901565b5b50905061192a919061192e565b5090565b5b8082111561194757600081600090555060010161192f565b5090565b600061195e61195984612302565b6122dd565b90508281526020810184848401111561197657600080fd5b6119818482856124d6565b509392505050565b600061199c61199784612333565b6122dd565b9050828152602081018484840111156119b457600080fd5b6119bf8482856124d6565b509392505050565b6000813590506119d681612b40565b92915050565b6000813590506119eb81612b57565b92915050565b600081359050611a0081612b6e565b92915050565b600081519050611a1581612b6e565b92915050565b600082601f830112611a2c57600080fd5b8135611a3c84826020860161194b565b91505092915050565b600082601f830112611a5657600080fd5b8135611a66848260208601611989565b91505092915050565b600081359050611a7e81612b85565b92915050565b600060208284031215611a9657600080fd5b6000611aa4848285016119c7565b91505092915050565b60008060408385031215611ac057600080fd5b6000611ace858286016119c7565b9250506020611adf858286016119c7565b9150509250929050565b600080600060608486031215611afe57600080fd5b6000611b0c868287016119c7565b9350506020611b1d868287016119c7565b9250506040611b2e86828701611a6f565b9150509250925092565b60008060008060808587031215611b4e57600080fd5b6000611b5c878288016119c7565b9450506020611b6d878288016119c7565b9350506040611b7e87828801611a6f565b925050606085013567ffffffffffffffff811115611b9b57600080fd5b611ba787828801611a1b565b91505092959194509250565b60008060408385031215611bc657600080fd5b6000611bd4858286016119c7565b9250506020611be5858286016119dc565b9150509250929050565b60008060408385031215611c0257600080fd5b6000611c10858286016119c7565b925050602083013567ffffffffffffffff811115611c2d57600080fd5b611c3985828601611a45565b9150509250929050565b60008060408385031215611c5657600080fd5b6000611c64858286016119c7565b9250506020611c7585828601611a6f565b9150509250929050565b600060208284031215611c9157600080fd5b6000611c9f848285016119f1565b91505092915050565b600060208284031215611cba57600080fd5b6000611cc884828501611a06565b91505092915050565b600060208284031215611ce357600080fd5b6000611cf184828501611a6f565b91505092915050565b611d0381612462565b82525050565b611d1281612474565b82525050565b6000611d2382612364565b611d2d818561237a565b9350611d3d8185602086016124e5565b611d46816126b1565b840191505092915050565b6000611d5c8261236f565b611d66818561238b565b9350611d768185602086016124e5565b611d7f816126b1565b840191505092915050565b6000611d958261236f565b611d9f818561239c565b9350611daf8185602086016124e5565b80840191505092915050565b6000611dc860328361238b565b9150611dd3826126c2565b604082019050919050565b6000611deb60258361238b565b9150611df682612711565b604082019050919050565b6000611e0e601c8361238b565b9150611e1982612760565b602082019050919050565b6000611e3160248361238b565b9150611e3c82612789565b604082019050919050565b6000611e5460198361238b565b9150611e5f826127d8565b602082019050919050565b6000611e77602c8361238b565b9150611e8282612801565b604082019050919050565b6000611e9a60388361238b565b9150611ea582612850565b604082019050919050565b6000611ebd602a8361238b565b9150611ec88261289f565b604082019050919050565b6000611ee060298361238b565b9150611eeb826128ee565b604082019050919050565b6000611f03602e8361238b565b9150611f0e8261293d565b604082019050919050565b6000611f2660208361238b565b9150611f318261298c565b602082019050919050565b6000611f4960318361238b565b9150611f54826129b5565b604082019050919050565b6000611f6c602c8361238b565b9150611f7782612a04565b604082019050919050565b6000611f8f602f8361238b565b9150611f9a82612a53565b604082019050919050565b6000611fb260218361238b565b9150611fbd82612aa2565b604082019050919050565b6000611fd560318361238b565b9150611fe082612af1565b604082019050919050565b611ff4816124cc565b82525050565b60006120068285611d8a565b91506120128284611d8a565b91508190509392505050565b60006020820190506120336000830184611cfa565b92915050565b600060808201905061204e6000830187611cfa565b61205b6020830186611cfa565b6120686040830185611feb565b818103606083015261207a8184611d18565b905095945050505050565b600060208201905061209a6000830184611d09565b92915050565b600060208201905081810360008301526120ba8184611d51565b905092915050565b600060208201905081810360008301526120db81611dbb565b9050919050565b600060208201905081810360008301526120fb81611dde565b9050919050565b6000602082019050818103600083015261211b81611e01565b9050919050565b6000602082019050818103600083015261213b81611e24565b9050919050565b6000602082019050818103600083015261215b81611e47565b9050919050565b6000602082019050818103600083015261217b81611e6a565b9050919050565b6000602082019050818103600083015261219b81611e8d565b9050919050565b600060208201905081810360008301526121bb81611eb0565b9050919050565b600060208201905081810360008301526121db81611ed3565b9050919050565b600060208201905081810360008301526121fb81611ef6565b9050919050565b6000602082019050818103600083015261221b81611f19565b9050919050565b6000602082019050818103600083015261223b81611f3c565b9050919050565b6000602082019050818103600083015261225b81611f5f565b9050919050565b6000602082019050818103600083015261227b81611f82565b9050919050565b6000602082019050818103600083015261229b81611fa5565b9050919050565b600060208201905081810360008301526122bb81611fc8565b9050919050565b60006020820190506122d76000830184611feb565b92915050565b60006122e76122f8565b90506122f3828261254a565b919050565b6000604051905090565b600067ffffffffffffffff82111561231d5761231c612682565b5b612326826126b1565b9050602081019050919050565b600067ffffffffffffffff82111561234e5761234d612682565b5b612357826126b1565b9050602081019050919050565b600081519050919050565b600081519050919050565b600082825260208201905092915050565b600082825260208201905092915050565b600081905092915050565b60006123b2826124cc565b91506123bd836124cc565b9250827fffffffffffffffffffffffffffffffffffffffffffffffffffffffffffffffff038211156123f2576123f16125f5565b5b828201905092915050565b6000612408826124cc565b9150612413836124cc565b92508261242357612422612624565b5b828204905092915050565b6000612439826124cc565b9150612444836124cc565b925082821015612457576124566125f5565b5b828203905092915050565b600061246d826124ac565b9050919050565b60008115159050919050565b60007fffffffff0000000000000000000000000000000000000000000000000000000082169050919050565b600073ffffffffffffffffffffffffffffffffffffffff82169050919050565b6000819050919050565b82818337600083830152505050565b60005b838110156125035780820151818401526020810190506124e8565b83811115612512576000848401525b50505050565b6000600282049050600182168061253057607f821691505b6020821081141561254457612543612653565b5b50919050565b612553826126b1565b810181811067ffffffffffffffff8211171561257257612571612682565b5b80604052505050565b6000612586826124cc565b91507fffffffffffffffffffffffffffffffffffffffffffffffffffffffffffffffff8214156125b9576125b86125f5565b5b600182019050919050565b60006125cf826124cc565b91506125da836124cc565b9250826125ea576125e9612624565b5b828206905092915050565b7f4e487b7100000000000000000000000000000000000000000000000000000000600052601160045260246000fd5b7f4e487b7100000000000000000000000000000000000000000000000000000000600052601260045260246000fd5b7f4e487b7100000000000000000000000000000000000000000000000000000000600052602260045260246000fd5b7f4e487b7100000000000000000000000000000000000000000000000000000000600052604160045260246000fd5b6000601f19601f8301169050919050565b7f4552433732313a207472616e7366657220746f206e6f6e20455243373231526560008201527f63656976657220696d706c656d656e7465720000000000000000000000000000602082015250565b7f4552433732313a207472616e736665722066726f6d20696e636f72726563742060008201527f6f776e6572000000000000000000000000000000000000000000000000000000602082015250565b7f4552433732313a20746f6b656e20616c7265616479206d696e74656400000000600082015250565b7f4552433732313a207472616e7366657220746f20746865207a65726f2061646460008201527f7265737300000000000000000000000000000000000000000000000000000000602082015250565b7f4552433732313a20617070726f766520746f2063616c6c657200000000000000600082015250565b7f4552433732313a206f70657261746f7220717565727920666f72206e6f6e657860008201527f697374656e7420746f6b656e0000000000000000000000000000000000000000602082015250565b7f4552433732313a20617070726f76652063616c6c6572206973206e6f74206f7760008201527f6e6572206e6f7220617070726f76656420666f7220616c6c0000000000000000602082015250565b7f4552433732313a2062616c616e636520717565727920666f7220746865207a6560008201527f726f206164647265737300000000000000000000000000000000000000000000602082015250565b7f4552433732313a206f776e657220717565727920666f72206e6f6e657869737460008201527f656e7420746f6b656e0000000000000000000000000000000000000000000000602082015250565b7f45524337323155524953746f726167653a2055524920736574206f66206e6f6e60008201527f6578697374656e7420746f6b656e000000000000000000000000000000000000602082015250565b7f4552433732313a206d696e7420746f20746865207a65726f2061646472657373600082015250565b7f45524337323155524953746f726167653a2055524920717565727920666f722060008201527f6e6f6e6578697374656e7420746f6b656e000000000000000000000000000000602082015250565b7f4552433732313a20617070726f76656420717565727920666f72206e6f6e657860008201527f697374656e7420746f6b656e0000000000000000000000000000000000000000602082015250565b7f4552433732314d657461646174613a2055524920717565727920666f72206e6f60008201527f6e6578697374656e7420746f6b656e0000000000000000000000000000000000602082015250565b7f4552433732313a20617070726f76616c20746f2063757272656e74206f776e6560008201527f7200000000000000000000000000000000000000000000000000000000000000602082015250565b7f4552433732313a207472616e736665722063616c6c6572206973206e6f74206f60008201527f776e6572206e6f7220617070726f766564000000000000000000000000000000602082015250565b612b4981612462565b8114612b5457600080fd5b50565b612b6081612474565b8114612b6b57600080fd5b50565b612b7781612480565b8114612b8257600080fd5b50565b612b8e816124cc565b8114612b9957600080fd5b5056fea264697066735822122036f3fcbc65f305686c0083d6eae35a48dda09e6ece0c91fc55ca1538b13ddfed64736f6c63430008040033",
  "linkReferences": {},
  "deployedLinkReferences": {}
}