{
  "_format": "hh-sol-artifact-1",
  "contractName": "FundRaiser",
  "sourceName": "contracts/Fundraiser.sol",
  "abi": [
    {
      "inputs": [
        {
          "internalType": "address",
          "name": "_tokenAddress",
          "type": "address"
        }
      ],
      "stateMutability": "nonpayable",
      "type": "constructor"
    },
    {
      "anonymous": false,
      "inputs": [
        {
          "indexed": false,
          "internalType": "address",
          "name": "_philanthropist",
          "type": "address"
        },
        {
          "indexed": true,
          "internalType": "uint256",
          "name": "campaignId",
          "type": "uint256"
        },
        {
          "indexed": false,
          "internalType": "uint256",
          "name": "amount",
          "type": "uint256"
        }
      ],
      "name": "DonatedToCompaign",
      "type": "event"
    },
    {
      "anonymous": false,
      "inputs": [
        {
          "indexed": true,
          "internalType": "address",
          "name": "startedBy",
          "type": "address"
        },
        {
          "indexed": false,
          "internalType": "uint256",
          "name": "campaignId",
          "type": "uint256"
        }
      ],
      "name": "RasiedCampaign",
      "type": "event"
    },
    {
      "inputs": [],
      "name": "_campaignId",
      "outputs": [
        {
          "internalType": "uint256",
          "name": "_value",
          "type": "uint256"
        }
      ],
      "stateMutability": "view",
      "type": "function"
    },
    {
      "inputs": [
        {
          "internalType": "uint256",
          "name": "",
          "type": "uint256"
        }
      ],
      "name": "_campaigns",
      "outputs": [
        {
          "internalType": "string",
          "name": "_ipfsURI",
          "type": "string"
        },
        {
          "internalType": "uint256",
          "name": "_amountRaised",
          "type": "uint256"
        }
      ],
      "stateMutability": "view",
      "type": "function"
    },
    {
      "inputs": [],
      "name": "campaignIDReturn",
      "outputs": [
        {
          "internalType": "uint256",
          "name": "",
          "type": "uint256"
        }
      ],
      "stateMutability": "view",
      "type": "function"
    },
    {
      "inputs": [],
      "name": "contractOwner",
      "outputs": [
        {
          "internalType": "address payable",
          "name": "",
          "type": "address"
        }
      ],
      "stateMutability": "view",
      "type": "function"
    },
    {
      "inputs": [
        {
          "internalType": "string",
          "name": "_IpfsURI",
          "type": "string"
        }
      ],
      "name": "createCampaign",
      "outputs": [
        {
          "internalType": "uint256",
          "name": "",
          "type": "uint256"
        }
      ],
      "stateMutability": "nonpayable",
      "type": "function"
    },
    {
      "inputs": [
        {
          "internalType": "uint256",
          "name": "id",
          "type": "uint256"
        },
        {
          "internalType": "uint256",
          "name": "amount",
          "type": "uint256"
        }
      ],
      "name": "makeDonation",
      "outputs": [],
      "stateMutability": "nonpayable",
      "type": "function"
    },
    {
      "inputs": [],
      "name": "tokenAddress",
      "outputs": [
        {
          "internalType": "address payable",
          "name": "",
          "type": "address"
        }
      ],
      "stateMutability": "view",
      "type": "function"
    }
  ],
  "bytecode": "0x60a060405234801561001057600080fd5b50604051610aa7380380610aa7833981810160405281019061003291906100cd565b60016000819055503373ffffffffffffffffffffffffffffffffffffffff1660808173ffffffffffffffffffffffffffffffffffffffff1660601b8152505080600260006101000a81548173ffffffffffffffffffffffffffffffffffffffff021916908373ffffffffffffffffffffffffffffffffffffffff1602179055505061013f565b6000815190506100c781610128565b92915050565b6000602082840312156100df57600080fd5b60006100ed848285016100b8565b91505092915050565b600061010182610108565b9050919050565b600073ffffffffffffffffffffffffffffffffffffffff82169050919050565b610131816100f6565b811461013c57600080fd5b50565b60805160601c61094a61015d6000396000610227015261094a6000f3fe608060405234801561001057600080fd5b506004361061007d5760003560e01c80639d76ea581161005b5780639d76ea58146100da578063ce606ee0146100f8578063d946035314610116578063fdbf9ff1146101475761007d565b806311e9da7b14610082578063623560af146100a057806390115792146100bc575b600080fd5b61008a610177565b6040516100979190610689565b60405180910390f35b6100ba60048036038101906100b59190610573565b610188565b005b6100c46101f3565b6040516100d19190610689565b60405180910390f35b6100e26101ff565b6040516100ef9190610615565b60405180910390f35b610100610225565b60405161010d9190610615565b60405180910390f35b610130600480360381019061012b919061054a565b610249565b60405161013e929190610659565b60405180910390f35b610161600480360381019061015c9190610509565b6102f5565b60405161016e9190610689565b60405180910390f35b600061018360016103c5565b905090565b806003600084815260200190815260200160002060010160008282546101ae9190610716565b92505081905550817f562f31352f4dbe5060b9a7fbff8590d42f4d910ef72873e8f877d27bfe506e2033836040516101e7929190610630565b60405180910390a25050565b60018060000154905081565b600260009054906101000a900473ffffffffffffffffffffffffffffffffffffffff1681565b7f000000000000000000000000000000000000000000000000000000000000000081565b600360205280600052604060002060009150905080600001805461026c906107fc565b80601f0160208091040260200160405190810160405280929190818152602001828054610298906107fc565b80156102e55780601f106102ba576101008083540402835291602001916102e5565b820191906000526020600020905b8154815290600101906020018083116102c857829003601f168201915b5050505050908060010154905082565b600061030160016103d3565b604051806040016040528083815260200160008152506003600061032560016103c5565b8152602001908152602001600020600082015181600001908051906020019061034f9291906103e9565b50602082015181600101559050503373ffffffffffffffffffffffffffffffffffffffff167fc54bc931bab9f262d48831ce8d80d2ba0a25839829aa84185ffd1b2a6300469961039f60016103c5565b6040516103ac9190610689565b60405180910390a26103be60016103c5565b9050919050565b600081600001549050919050565b6001816000016000828254019250508190555050565b8280546103f5906107fc565b90600052602060002090601f016020900481019282610417576000855561045e565b82601f1061043057805160ff191683800117855561045e565b8280016001018555821561045e579182015b8281111561045d578251825591602001919060010190610442565b5b50905061046b919061046f565b5090565b5b80821115610488576000816000905550600101610470565b5090565b600061049f61049a846106c9565b6106a4565b9050828152602081018484840111156104b757600080fd5b6104c28482856107ba565b509392505050565b600082601f8301126104db57600080fd5b81356104eb84826020860161048c565b91505092915050565b600081359050610503816108fd565b92915050565b60006020828403121561051b57600080fd5b600082013567ffffffffffffffff81111561053557600080fd5b610541848285016104ca565b91505092915050565b60006020828403121561055c57600080fd5b600061056a848285016104f4565b91505092915050565b6000806040838503121561058657600080fd5b6000610594858286016104f4565b92505060206105a5858286016104f4565b9150509250929050565b6105b88161077e565b82525050565b6105c78161076c565b82525050565b60006105d8826106fa565b6105e28185610705565b93506105f28185602086016107c9565b6105fb816108ec565b840191505092915050565b61060f816107b0565b82525050565b600060208201905061062a60008301846105af565b92915050565b600060408201905061064560008301856105be565b6106526020830184610606565b9392505050565b6000604082019050818103600083015261067381856105cd565b90506106826020830184610606565b9392505050565b600060208201905061069e6000830184610606565b92915050565b60006106ae6106bf565b90506106ba828261082e565b919050565b6000604051905090565b600067ffffffffffffffff8211156106e4576106e36108bd565b5b6106ed826108ec565b9050602081019050919050565b600081519050919050565b600082825260208201905092915050565b6000610721826107b0565b915061072c836107b0565b9250827fffffffffffffffffffffffffffffffffffffffffffffffffffffffffffffffff038211156107615761076061085f565b5b828201905092915050565b600061077782610790565b9050919050565b600061078982610790565b9050919050565b600073ffffffffffffffffffffffffffffffffffffffff82169050919050565b6000819050919050565b82818337600083830152505050565b60005b838110156107e75780820151818401526020810190506107cc565b838111156107f6576000848401525b50505050565b6000600282049050600182168061081457607f821691505b602082108114156108285761082761088e565b5b50919050565b610837826108ec565b810181811067ffffffffffffffff82111715610856576108556108bd565b5b80604052505050565b7f4e487b7100000000000000000000000000000000000000000000000000000000600052601160045260246000fd5b7f4e487b7100000000000000000000000000000000000000000000000000000000600052602260045260246000fd5b7f4e487b7100000000000000000000000000000000000000000000000000000000600052604160045260246000fd5b6000601f19601f8301169050919050565b610906816107b0565b811461091157600080fd5b5056fea2646970667358221220e0b765641e9de48af931aef7fadb95eda87bd66077f8be4f352631571945ee9c64736f6c63430008040033",
  "linkReferences": {},
  "deployedLinkReferences": {}
}