{
  "_format": "hh-sol-artifact-1",
  "contractName": "Governance",
  "sourceName": "contracts/Governance.sol",
  "abi": [
    {
      "inputs": [
        {
          "internalType": "contract ERC20Votes",
          "name": "_token",
          "type": "address"
        },
        {
          "internalType": "contract TimelockController",
          "name": "_timelock",
          "type": "address"
        },
        {
          "internalType": "uint256",
          "name": "_quorum",
          "type": "uint256"
        },
        {
          "internalType": "uint256",
          "name": "_votingDelay",
          "type": "uint256"
        },
        {
          "internalType": "uint256",
          "name": "_votingPeriod",
          "type": "uint256"
        }
      ],
      "stateMutability": "nonpayable",
      "type": "constructor"
    },
    {
      "inputs": [],
      "name": "Empty",
      "type": "error"
    },
    {
      "anonymous": false,
      "inputs": [
        {
          "indexed": false,
          "internalType": "uint256",
          "name": "proposalId",
          "type": "uint256"
        }
      ],
      "name": "ProposalCanceled",
      "type": "event"
    },
    {
      "anonymous": false,
      "inputs": [
        {
          "indexed": false,
          "internalType": "uint256",
          "name": "proposalId",
          "type": "uint256"
        },
        {
          "indexed": false,
          "internalType": "address",
          "name": "proposer",
          "type": "address"
        },
        {
          "indexed": false,
          "internalType": "address[]",
          "name": "targets",
          "type": "address[]"
        },
        {
          "indexed": false,
          "internalType": "uint256[]",
          "name": "values",
          "type": "uint256[]"
        },
        {
          "indexed": false,
          "internalType": "string[]",
          "name": "signatures",
          "type": "string[]"
        },
        {
          "indexed": false,
          "internalType": "bytes[]",
          "name": "calldatas",
          "type": "bytes[]"
        },
        {
          "indexed": false,
          "internalType": "uint256",
          "name": "startBlock",
          "type": "uint256"
        },
        {
          "indexed": false,
          "internalType": "uint256",
          "name": "endBlock",
          "type": "uint256"
        },
        {
          "indexed": false,
          "internalType": "string",
          "name": "description",
          "type": "string"
        }
      ],
      "name": "ProposalCreated",
      "type": "event"
    },
    {
      "anonymous": false,
      "inputs": [
        {
          "indexed": false,
          "internalType": "uint256",
          "name": "proposalId",
          "type": "uint256"
        }
      ],
      "name": "ProposalExecuted",
      "type": "event"
    },
    {
      "anonymous": false,
      "inputs": [
        {
          "indexed": false,
          "internalType": "uint256",
          "name": "proposalId",
          "type": "uint256"
        },
        {
          "indexed": false,
          "internalType": "uint256",
          "name": "eta",
          "type": "uint256"
        }
      ],
      "name": "ProposalQueued",
      "type": "event"
    },
    {
      "anonymous": false,
      "inputs": [
        {
          "indexed": false,
          "internalType": "uint256",
          "name": "oldQuorumNumerator",
          "type": "uint256"
        },
        {
          "indexed": false,
          "internalType": "uint256",
          "name": "newQuorumNumerator",
          "type": "uint256"
        }
      ],
      "name": "QuorumNumeratorUpdated",
      "type": "event"
    },
    {
      "anonymous": false,
      "inputs": [
        {
          "indexed": false,
          "internalType": "address",
          "name": "oldTimelock",
          "type": "address"
        },
        {
          "indexed": false,
          "internalType": "address",
          "name": "newTimelock",
          "type": "address"
        }
      ],
      "name": "TimelockChange",
      "type": "event"
    },
    {
      "anonymous": false,
      "inputs": [
        {
          "indexed": true,
          "internalType": "address",
          "name": "voter",
          "type": "address"
        },
        {
          "indexed": false,
          "internalType": "uint256",
          "name": "proposalId",
          "type": "uint256"
        },
        {
          "indexed": false,
          "internalType": "uint8",
          "name": "support",
          "type": "uint8"
        },
        {
          "indexed": false,
          "internalType": "uint256",
          "name": "weight",
          "type": "uint256"
        },
        {
          "indexed": false,
          "internalType": "string",
          "name": "reason",
          "type": "string"
        }
      ],
      "name": "VoteCast",
      "type": "event"
    },
    {
      "anonymous": false,
      "inputs": [
        {
          "indexed": true,
          "internalType": "address",
          "name": "voter",
          "type": "address"
        },
        {
          "indexed": false,
          "internalType": "uint256",
          "name": "proposalId",
          "type": "uint256"
        },
        {
          "indexed": false,
          "internalType": "uint8",
          "name": "support",
          "type": "uint8"
        },
        {
          "indexed": false,
          "internalType": "uint256",
          "name": "weight",
          "type": "uint256"
        },
        {
          "indexed": false,
          "internalType": "string",
          "name": "reason",
          "type": "string"
        },
        {
          "indexed": false,
          "internalType": "bytes",
          "name": "params",
          "type": "bytes"
        }
      ],
      "name": "VoteCastWithParams",
      "type": "event"
    },
    {
      "inputs": [],
      "name": "BALLOT_TYPEHASH",
      "outputs": [
        {
          "internalType": "bytes32",
          "name": "",
          "type": "bytes32"
        }
      ],
      "stateMutability": "view",
      "type": "function"
    },
    {
      "inputs": [],
      "name": "COUNTING_MODE",
      "outputs": [
        {
          "internalType": "string",
          "name": "",
          "type": "string"
        }
      ],
      "stateMutability": "pure",
      "type": "function"
    },
    {
      "inputs": [],
      "name": "EXTENDED_BALLOT_TYPEHASH",
      "outputs": [
        {
          "internalType": "bytes32",
          "name": "",
          "type": "bytes32"
        }
      ],
      "stateMutability": "view",
      "type": "function"
    },
    {
      "inputs": [
        {
          "internalType": "uint256",
          "name": "proposalId",
          "type": "uint256"
        },
        {
          "internalType": "uint8",
          "name": "support",
          "type": "uint8"
        }
      ],
      "name": "castVote",
      "outputs": [
        {
          "internalType": "uint256",
          "name": "",
          "type": "uint256"
        }
      ],
      "stateMutability": "nonpayable",
      "type": "function"
    },
    {
      "inputs": [
        {
          "internalType": "uint256",
          "name": "proposalId",
          "type": "uint256"
        },
        {
          "internalType": "uint8",
          "name": "support",
          "type": "uint8"
        },
        {
          "internalType": "uint8",
          "name": "v",
          "type": "uint8"
        },
        {
          "internalType": "bytes32",
          "name": "r",
          "type": "bytes32"
        },
        {
          "internalType": "bytes32",
          "name": "s",
          "type": "bytes32"
        }
      ],
      "name": "castVoteBySig",
      "outputs": [
        {
          "internalType": "uint256",
          "name": "",
          "type": "uint256"
        }
      ],
      "stateMutability": "nonpayable",
      "type": "function"
    },
    {
      "inputs": [
        {
          "internalType": "uint256",
          "name": "proposalId",
          "type": "uint256"
        },
        {
          "internalType": "uint8",
          "name": "support",
          "type": "uint8"
        },
        {
          "internalType": "string",
          "name": "reason",
          "type": "string"
        }
      ],
      "name": "castVoteWithReason",
      "outputs": [
        {
          "internalType": "uint256",
          "name": "",
          "type": "uint256"
        }
      ],
      "stateMutability": "nonpayable",
      "type": "function"
    },
    {
      "inputs": [
        {
          "internalType": "uint256",
          "name": "proposalId",
          "type": "uint256"
        },
        {
          "internalType": "uint8",
          "name": "support",
          "type": "uint8"
        },
        {
          "internalType": "string",
          "name": "reason",
          "type": "string"
        },
        {
          "internalType": "bytes",
          "name": "params",
          "type": "bytes"
        }
      ],
      "name": "castVoteWithReasonAndParams",
      "outputs": [
        {
          "internalType": "uint256",
          "name": "",
          "type": "uint256"
        }
      ],
      "stateMutability": "nonpayable",
      "type": "function"
    },
    {
      "inputs": [
        {
          "internalType": "uint256",
          "name": "proposalId",
          "type": "uint256"
        },
        {
          "internalType": "uint8",
          "name": "support",
          "type": "uint8"
        },
        {
          "internalType": "string",
          "name": "reason",
          "type": "string"
        },
        {
          "internalType": "bytes",
          "name": "params",
          "type": "bytes"
        },
        {
          "internalType": "uint8",
          "name": "v",
          "type": "uint8"
        },
        {
          "internalType": "bytes32",
          "name": "r",
          "type": "bytes32"
        },
        {
          "internalType": "bytes32",
          "name": "s",
          "type": "bytes32"
        }
      ],
      "name": "castVoteWithReasonAndParamsBySig",
      "outputs": [
        {
          "internalType": "uint256",
          "name": "",
          "type": "uint256"
        }
      ],
      "stateMutability": "nonpayable",
      "type": "function"
    },
    {
      "inputs": [
        {
          "internalType": "address[]",
          "name": "targets",
          "type": "address[]"
        },
        {
          "internalType": "uint256[]",
          "name": "values",
          "type": "uint256[]"
        },
        {
          "internalType": "bytes[]",
          "name": "calldatas",
          "type": "bytes[]"
        },
        {
          "internalType": "bytes32",
          "name": "descriptionHash",
          "type": "bytes32"
        }
      ],
      "name": "execute",
      "outputs": [
        {
          "internalType": "uint256",
          "name": "",
          "type": "uint256"
        }
      ],
      "stateMutability": "payable",
      "type": "function"
    },
    {
      "inputs": [
        {
          "internalType": "address",
          "name": "account",
          "type": "address"
        },
        {
          "internalType": "uint256",
          "name": "blockNumber",
          "type": "uint256"
        }
      ],
      "name": "getVotes",
      "outputs": [
        {
          "internalType": "uint256",
          "name": "",
          "type": "uint256"
        }
      ],
      "stateMutability": "view",
      "type": "function"
    },
    {
      "inputs": [
        {
          "internalType": "address",
          "name": "account",
          "type": "address"
        },
        {
          "internalType": "uint256",
          "name": "blockNumber",
          "type": "uint256"
        },
        {
          "internalType": "bytes",
          "name": "params",
          "type": "bytes"
        }
      ],
      "name": "getVotesWithParams",
      "outputs": [
        {
          "internalType": "uint256",
          "name": "",
          "type": "uint256"
        }
      ],
      "stateMutability": "view",
      "type": "function"
    },
    {
      "inputs": [
        {
          "internalType": "uint256",
          "name": "proposalId",
          "type": "uint256"
        },
        {
          "internalType": "address",
          "name": "account",
          "type": "address"
        }
      ],
      "name": "hasVoted",
      "outputs": [
        {
          "internalType": "bool",
          "name": "",
          "type": "bool"
        }
      ],
      "stateMutability": "view",
      "type": "function"
    },
    {
      "inputs": [
        {
          "internalType": "address[]",
          "name": "targets",
          "type": "address[]"
        },
        {
          "internalType": "uint256[]",
          "name": "values",
          "type": "uint256[]"
        },
        {
          "internalType": "bytes[]",
          "name": "calldatas",
          "type": "bytes[]"
        },
        {
          "internalType": "bytes32",
          "name": "descriptionHash",
          "type": "bytes32"
        }
      ],
      "name": "hashProposal",
      "outputs": [
        {
          "internalType": "uint256",
          "name": "",
          "type": "uint256"
        }
      ],
      "stateMutability": "pure",
      "type": "function"
    },
    {
      "inputs": [],
      "name": "name",
      "outputs": [
        {
          "internalType": "string",
          "name": "",
          "type": "string"
        }
      ],
      "stateMutability": "view",
      "type": "function"
    },
    {
      "inputs": [
        {
          "internalType": "address",
          "name": "",
          "type": "address"
        },
        {
          "internalType": "address",
          "name": "",
          "type": "address"
        },
        {
          "internalType": "uint256[]",
          "name": "",
          "type": "uint256[]"
        },
        {
          "internalType": "uint256[]",
          "name": "",
          "type": "uint256[]"
        },
        {
          "internalType": "bytes",
          "name": "",
          "type": "bytes"
        }
      ],
      "name": "onERC1155BatchReceived",
      "outputs": [
        {
          "internalType": "bytes4",
          "name": "",
          "type": "bytes4"
        }
      ],
      "stateMutability": "nonpayable",
      "type": "function"
    },
    {
      "inputs": [
        {
          "internalType": "address",
          "name": "",
          "type": "address"
        },
        {
          "internalType": "address",
          "name": "",
          "type": "address"
        },
        {
          "internalType": "uint256",
          "name": "",
          "type": "uint256"
        },
        {
          "internalType": "uint256",
          "name": "",
          "type": "uint256"
        },
        {
          "internalType": "bytes",
          "name": "",
          "type": "bytes"
        }
      ],
      "name": "onERC1155Received",
      "outputs": [
        {
          "internalType": "bytes4",
          "name": "",
          "type": "bytes4"
        }
      ],
      "stateMutability": "nonpayable",
      "type": "function"
    },
    {
      "inputs": [
        {
          "internalType": "address",
          "name": "",
          "type": "address"
        },
        {
          "internalType": "address",
          "name": "",
          "type": "address"
        },
        {
          "internalType": "uint256",
          "name": "",
          "type": "uint256"
        },
        {
          "internalType": "bytes",
          "name": "",
          "type": "bytes"
        }
      ],
      "name": "onERC721Received",
      "outputs": [
        {
          "internalType": "bytes4",
          "name": "",
          "type": "bytes4"
        }
      ],
      "stateMutability": "nonpayable",
      "type": "function"
    },
    {
      "inputs": [
        {
          "internalType": "uint256",
          "name": "proposalId",
          "type": "uint256"
        }
      ],
      "name": "proposalDeadline",
      "outputs": [
        {
          "internalType": "uint256",
          "name": "",
          "type": "uint256"
        }
      ],
      "stateMutability": "view",
      "type": "function"
    },
    {
      "inputs": [
        {
          "internalType": "uint256",
          "name": "proposalId",
          "type": "uint256"
        }
      ],
      "name": "proposalEta",
      "outputs": [
        {
          "internalType": "uint256",
          "name": "",
          "type": "uint256"
        }
      ],
      "stateMutability": "view",
      "type": "function"
    },
    {
      "inputs": [
        {
          "internalType": "uint256",
          "name": "proposalId",
          "type": "uint256"
        }
      ],
      "name": "proposalSnapshot",
      "outputs": [
        {
          "internalType": "uint256",
          "name": "",
          "type": "uint256"
        }
      ],
      "stateMutability": "view",
      "type": "function"
    },
    {
      "inputs": [],
      "name": "proposalThreshold",
      "outputs": [
        {
          "internalType": "uint256",
          "name": "",
          "type": "uint256"
        }
      ],
      "stateMutability": "view",
      "type": "function"
    },
    {
      "inputs": [
        {
          "internalType": "uint256",
          "name": "proposalId",
          "type": "uint256"
        }
      ],
      "name": "proposalVotes",
      "outputs": [
        {
          "internalType": "uint256",
          "name": "againstVotes",
          "type": "uint256"
        },
        {
          "internalType": "uint256",
          "name": "forVotes",
          "type": "uint256"
        },
        {
          "internalType": "uint256",
          "name": "abstainVotes",
          "type": "uint256"
        }
      ],
      "stateMutability": "view",
      "type": "function"
    },
    {
      "inputs": [
        {
          "internalType": "address[]",
          "name": "targets",
          "type": "address[]"
        },
        {
          "internalType": "uint256[]",
          "name": "values",
          "type": "uint256[]"
        },
        {
          "internalType": "bytes[]",
          "name": "calldatas",
          "type": "bytes[]"
        },
        {
          "internalType": "string",
          "name": "description",
          "type": "string"
        }
      ],
      "name": "propose",
      "outputs": [
        {
          "internalType": "uint256",
          "name": "",
          "type": "uint256"
        }
      ],
      "stateMutability": "nonpayable",
      "type": "function"
    },
    {
      "inputs": [
        {
          "internalType": "address[]",
          "name": "targets",
          "type": "address[]"
        },
        {
          "internalType": "uint256[]",
          "name": "values",
          "type": "uint256[]"
        },
        {
          "internalType": "bytes[]",
          "name": "calldatas",
          "type": "bytes[]"
        },
        {
          "internalType": "bytes32",
          "name": "descriptionHash",
          "type": "bytes32"
        }
      ],
      "name": "queue",
      "outputs": [
        {
          "internalType": "uint256",
          "name": "",
          "type": "uint256"
        }
      ],
      "stateMutability": "nonpayable",
      "type": "function"
    },
    {
      "inputs": [
        {
          "internalType": "uint256",
          "name": "blockNumber",
          "type": "uint256"
        }
      ],
      "name": "quorum",
      "outputs": [
        {
          "internalType": "uint256",
          "name": "",
          "type": "uint256"
        }
      ],
      "stateMutability": "view",
      "type": "function"
    },
    {
      "inputs": [],
      "name": "quorumDenominator",
      "outputs": [
        {
          "internalType": "uint256",
          "name": "",
          "type": "uint256"
        }
      ],
      "stateMutability": "view",
      "type": "function"
    },
    {
      "inputs": [],
      "name": "quorumNumerator",
      "outputs": [
        {
          "internalType": "uint256",
          "name": "",
          "type": "uint256"
        }
      ],
      "stateMutability": "view",
      "type": "function"
    },
    {
      "inputs": [
        {
          "internalType": "address",
          "name": "target",
          "type": "address"
        },
        {
          "internalType": "uint256",
          "name": "value",
          "type": "uint256"
        },
        {
          "internalType": "bytes",
          "name": "data",
          "type": "bytes"
        }
      ],
      "name": "relay",
      "outputs": [],
      "stateMutability": "nonpayable",
      "type": "function"
    },
    {
      "inputs": [
        {
          "internalType": "uint256",
          "name": "proposalId",
          "type": "uint256"
        }
      ],
      "name": "state",
      "outputs": [
        {
          "internalType": "enum IGovernor.ProposalState",
          "name": "",
          "type": "uint8"
        }
      ],
      "stateMutability": "view",
      "type": "function"
    },
    {
      "inputs": [
        {
          "internalType": "bytes4",
          "name": "interfaceId",
          "type": "bytes4"
        }
      ],
      "name": "supportsInterface",
      "outputs": [
        {
          "internalType": "bool",
          "name": "",
          "type": "bool"
        }
      ],
      "stateMutability": "view",
      "type": "function"
    },
    {
      "inputs": [],
      "name": "timelock",
      "outputs": [
        {
          "internalType": "address",
          "name": "",
          "type": "address"
        }
      ],
      "stateMutability": "view",
      "type": "function"
    },
    {
      "inputs": [],
      "name": "token",
      "outputs": [
        {
          "internalType": "contract IVotes",
          "name": "",
          "type": "address"
        }
      ],
      "stateMutability": "view",
      "type": "function"
    },
    {
      "inputs": [
        {
          "internalType": "uint256",
          "name": "newQuorumNumerator",
          "type": "uint256"
        }
      ],
      "name": "updateQuorumNumerator",
      "outputs": [],
      "stateMutability": "nonpayable",
      "type": "function"
    },
    {
      "inputs": [
        {
          "internalType": "contract TimelockController",
          "name": "newTimelock",
          "type": "address"
        }
      ],
      "name": "updateTimelock",
      "outputs": [],
      "stateMutability": "nonpayable",
      "type": "function"
    },
    {
      "inputs": [],
      "name": "version",
      "outputs": [
        {
          "internalType": "string",
          "name": "",
          "type": "string"
        }
      ],
      "stateMutability": "view",
      "type": "function"
    },
    {
      "inputs": [],
      "name": "votingDelay",
      "outputs": [
        {
          "internalType": "uint256",
          "name": "",
          "type": "uint256"
        }
      ],
      "stateMutability": "view",
      "type": "function"
    },
    {
      "inputs": [],
      "name": "votingDelay_",
      "outputs": [
        {
          "internalType": "uint256",
          "name": "",
          "type": "uint256"
        }
      ],
      "stateMutability": "view",
      "type": "function"
    },
    {
      "inputs": [],
      "name": "votingPeriod",
      "outputs": [
        {
          "internalType": "uint256",
          "name": "",
          "type": "uint256"
        }
      ],
      "stateMutability": "view",
      "type": "function"
    },
    {
      "inputs": [],
      "name": "votingPeriod_",
      "outputs": [
        {
          "internalType": "uint256",
          "name": "",
          "type": "uint256"
        }
      ],
      "stateMutability": "view",
      "type": "function"
    },
    {
      "stateMutability": "payable",
      "type": "receive"
    }
  ],
  "bytecode": "0x6101606040523480156200001257600080fd5b506040516200686238038062006862833981810160405281019062000038919062000481565b8383866040518060400160405280601381526020017f4441707020556e69766572736974792044414f000000000000000000000000008152508062000082620001c760201b60201c565b60008280519060200120905060008280519060200120905060007f8b73c3c69bb8fe3d512ecc4cf759cc79239f7b179b0ffacaa9a75d522b39400f90508260e081815250508161010081815250504660a08181525050620000eb8184846200020460201b60201c565b608081815250503073ffffffffffffffffffffffffffffffffffffffff1660c08173ffffffffffffffffffffffffffffffffffffffff1660601b81525050806101208181525050505050505080600090805190602001906200014f9291906200038c565b50508073ffffffffffffffffffffffffffffffffffffffff166101408173ffffffffffffffffffffffffffffffffffffffff1660601b81525050506200019b816200024060201b60201c565b50620001ad81620002e260201b60201c565b5081600881905550806009819055505050505050620007f3565b60606040518060400160405280600181526020017f3100000000000000000000000000000000000000000000000000000000000000815250905090565b60008383834630604051602001620002219594939291906200058a565b6040516020818303038152906040528051906020012090509392505050565b620002506200038360201b60201c565b81111562000295576040517f08c379a00000000000000000000000000000000000000000000000000000000081526004016200028c90620005e7565b60405180910390fd5b60006005549050816005819055507f0553476bf02ef2726e8ce5ced78d63e26e602e4a2257b1f559418e24b46339978183604051620002d692919062000609565b60405180910390a15050565b7f08f74ea46ef7894f65eabfb5e6e695de773a000b47c529ab559178069b226401600660009054906101000a900473ffffffffffffffffffffffffffffffffffffffff1682604051620003379291906200055d565b60405180910390a180600660006101000a81548173ffffffffffffffffffffffffffffffffffffffff021916908373ffffffffffffffffffffffffffffffffffffffff16021790555050565b60006064905090565b8280546200039a90620006cb565b90600052602060002090601f016020900481019282620003be57600085556200040a565b82601f10620003d957805160ff19168380011785556200040a565b828001600101855582156200040a579182015b8281111562000409578251825591602001919060010190620003ec565b5b5090506200041991906200041d565b5090565b5b80821115620004385760008160009055506001016200041e565b5090565b6000815190506200044d81620007a5565b92915050565b6000815190506200046481620007bf565b92915050565b6000815190506200047b81620007d9565b92915050565b600080600080600060a086880312156200049a57600080fd5b6000620004aa888289016200043c565b9550506020620004bd8882890162000453565b9450506040620004d0888289016200046a565b9350506060620004e3888289016200046a565b9250506080620004f6888289016200046a565b9150509295509295909350565b6200050e8162000647565b82525050565b6200051f816200066f565b82525050565b60006200053460438362000636565b9150620005418262000730565b606082019050919050565b6200055781620006c1565b82525050565b600060408201905062000574600083018562000503565b62000583602083018462000503565b9392505050565b600060a082019050620005a1600083018862000514565b620005b0602083018762000514565b620005bf604083018662000514565b620005ce60608301856200054c565b620005dd608083018462000503565b9695505050505050565b60006020820190508181036000830152620006028162000525565b9050919050565b60006040820190506200062060008301856200054c565b6200062f60208301846200054c565b9392505050565b600082825260208201905092915050565b60006200065482620006a1565b9050919050565b60006200066882620006a1565b9050919050565b6000819050919050565b6000620006868262000647565b9050919050565b60006200069a826200065b565b9050919050565b600073ffffffffffffffffffffffffffffffffffffffff82169050919050565b6000819050919050565b60006002820490506001821680620006e457607f821691505b60208210811415620006fb57620006fa62000701565b5b50919050565b7f4e487b7100000000000000000000000000000000000000000000000000000000600052602260045260246000fd5b7f476f7665726e6f72566f74657351756f72756d4672616374696f6e3a2071756f60008201527f72756d4e756d657261746f72206f7665722071756f72756d44656e6f6d696e6160208201527f746f720000000000000000000000000000000000000000000000000000000000604082015250565b620007b08162000679565b8114620007bc57600080fd5b50565b620007ca816200068d565b8114620007d657600080fd5b50565b620007e481620006c1565b8114620007f057600080fd5b50565b60805160a05160c05160601c60e05161010051610120516101405160601c6160006200086260003960008181611a540152818161262a01526127da01526000612aaf01526000612af101526000612ad001526000612a0501526000612a5b01526000612a8401526160006000f3fe6080604052600436106102345760003560e01c80637b3c71d31161012e578063c01f9e37116100ab578063deaaa7cc1161006f578063deaaa7cc1461097a578063eb9019d4146109a5578063f23a6e61146109e2578063f8ce560a14610a1f578063fc0c546a14610a5c5761027a565b8063c01f9e3714610881578063c28bc2fa146108be578063c59057e4146108e7578063d33219b414610924578063dd4e2ba51461094f5761027a565b8063a7713a70116100f2578063a7713a7014610788578063a890c910146107b3578063ab58fb8e146107dc578063b58131b014610819578063bc197c81146108445761027a565b80637b3c71d31461067b5780637d5e81e2146106b85780638b02dbde146106f557806397c3d334146107205780639a802a6d1461074b5761027a565b80632fe3e261116101bc5780634385963211610180578063438596321461055a578063544ffc9c1461059757806354fd4d50146105d657806356781388146106015780635f398a141461063e5761027a565b80632fe3e2611461045f5780633932abb11461048a5780633bccf4fd146104b55780633e4f49e6146104f257806342024c2b1461052f5761027a565b806306fdde031161020357806306fdde031461034d578063150b7a0214610378578063160cbed7146103b55780632656227d146103f25780632d63f693146104225761027a565b806301ffc9a71461027f57806302a251a3146102bc57806303420181146102e757806306f3f9e6146103245761027a565b3661027a573073ffffffffffffffffffffffffffffffffffffffff16610258610a87565b73ffffffffffffffffffffffffffffffffffffffff161461027857600080fd5b005b600080fd5b34801561028b57600080fd5b506102a660048036038101906102a1919061410a565b610a96565b6040516102b39190614d1b565b60405180910390f35b3480156102c857600080fd5b506102d1610aa8565b6040516102de9190615126565b60405180910390f35b3480156102f357600080fd5b5061030e6004803603810190610309919061432a565b610ab2565b60405161031b9190615126565b60405180910390f35b34801561033057600080fd5b5061034b6004803603810190610346919061415c565b610b97565b005b34801561035957600080fd5b50610362610c93565b60405161036f9190614ec4565b60405180910390f35b34801561038457600080fd5b5061039f600480360381019061039a9190613d31565b610d25565b6040516103ac9190614e73565b60405180910390f35b3480156103c157600080fd5b506103dc60048036038101906103d79190613f4a565b610d39565b6040516103e99190615126565b60405180910390f35b61040c60048036038101906104079190613f4a565b61105d565b6040516104199190615126565b60405180910390f35b34801561042e57600080fd5b506104496004803603810190610444919061415c565b611242565b6040516104569190615126565b60405180910390f35b34801561046b57600080fd5b506104746112b0565b6040516104819190614d36565b60405180910390f35b34801561049657600080fd5b5061049f6112d4565b6040516104ac9190615126565b60405180910390f35b3480156104c157600080fd5b506104dc60048036038101906104d791906143fc565b6112de565b6040516104e99190615126565b60405180910390f35b3480156104fe57600080fd5b506105196004803603810190610514919061415c565b611368565b6040516105269190614ea9565b60405180910390f35b34801561053b57600080fd5b5061054461137a565b6040516105519190615126565b60405180910390f35b34801561056657600080fd5b50610581600480360381019061057c91906141ae565b611380565b60405161058e9190614d1b565b60405180910390f35b3480156105a357600080fd5b506105be60048036038101906105b9919061415c565b6113eb565b6040516105cd9392919061521a565b60405180910390f35b3480156105e257600080fd5b506105eb611423565b6040516105f89190614ec4565b60405180910390f35b34801561060d57600080fd5b50610628600480360381019061062391906141ea565b611460565b6040516106359190615126565b60405180910390f35b34801561064a57600080fd5b5061066560048036038101906106609190614292565b611491565b6040516106729190615126565b60405180910390f35b34801561068757600080fd5b506106a2600480360381019061069d9190614226565b6114fb565b6040516106af9190615126565b60405180910390f35b3480156106c457600080fd5b506106df60048036038101906106da9190613ff5565b611563565b6040516106ec9190615126565b60405180910390f35b34801561070157600080fd5b5061070a61157b565b6040516107179190615126565b60405180910390f35b34801561072c57600080fd5b50610735611581565b6040516107429190615126565b60405180910390f35b34801561075757600080fd5b50610772600480360381019061076d9190613ee3565b61158a565b60405161077f9190615126565b60405180910390f35b34801561079457600080fd5b5061079d6115a0565b6040516107aa9190615126565b60405180910390f35b3480156107bf57600080fd5b506107da60048036038101906107d59190614133565b6115aa565b005b3480156107e857600080fd5b5061080360048036038101906107fe919061415c565b6116a6565b6040516108109190615126565b60405180910390f35b34801561082557600080fd5b5061082e611782565b60405161083b9190615126565b60405180910390f35b34801561085057600080fd5b5061086b60048036038101906108669190613c72565b611787565b6040516108789190614e73565b60405180910390f35b34801561088d57600080fd5b506108a860048036038101906108a3919061415c565b61179c565b6040516108b59190615126565b60405180910390f35b3480156108ca57600080fd5b506108e560048036038101906108e09190613e77565b61180a565b005b3480156108f357600080fd5b5061090e60048036038101906109099190613f4a565b611950565b60405161091b9190615126565b60405180910390f35b34801561093057600080fd5b5061093961198c565b6040516109469190614b76565b60405180910390f35b34801561095b57600080fd5b506109646119b6565b6040516109719190614ec4565b60405180910390f35b34801561098657600080fd5b5061098f6119f3565b60405161099c9190614d36565b60405180910390f35b3480156109b157600080fd5b506109cc60048036038101906109c79190613e3b565b611a17565b6040516109d99190615126565b60405180910390f35b3480156109ee57600080fd5b50610a096004803603810190610a049190613dac565b611a2b565b604051610a169190614e73565b60405180910390f35b348015610a2b57600080fd5b50610a466004803603810190610a41919061415c565b611a40565b604051610a539190615126565b60405180910390f35b348015610a6857600080fd5b50610a71611a52565b604051610a7e9190614e8e565b60405180910390f35b6000610a91611a76565b905090565b6000610aa182611aa0565b9050919050565b6000600954905090565b600080610b35610b2d7fb3b3f3b703cd84ce352197dcff232b1b5d3cfb2025ce47cf04742d0651f1af888c8c8c8c604051610aee929190614b0f565b60405180910390208b80519060200120604051602001610b12959493929190614ddb565b60405160208183030381529060405280519060200120611b1a565b868686611b34565b9050610b888a828b8b8b8080601f016020809104026020016040519081016040528093929190818152602001838380828437600081840152601f19601f820116905080830192505050505050508a611b5f565b91505098975050505050505050565b610b9f610a87565b73ffffffffffffffffffffffffffffffffffffffff16610bbd611d68565b73ffffffffffffffffffffffffffffffffffffffff1614610c13576040517f08c379a0000000000000000000000000000000000000000000000000000000008152600401610c0a90614f06565b60405180910390fd5b3073ffffffffffffffffffffffffffffffffffffffff16610c32610a87565b73ffffffffffffffffffffffffffffffffffffffff1614610c87576000610c57611d70565b604051610c65929190614b0f565b604051809103902090505b80610c7b6002611d7d565b14610c8557610c70565b505b610c9081611e59565b50565b606060008054610ca290615834565b80601f0160208091040260200160405190810160405280929190818152602001828054610cce90615834565b8015610d1b5780601f10610cf057610100808354040283529160200191610d1b565b820191906000526020600020905b815481529060010190602001808311610cfe57829003601f168201915b5050505050905090565b600063150b7a0260e01b9050949350505050565b600080610d4886868686611950565b905060046007811115610d84577f4e487b7100000000000000000000000000000000000000000000000000000000600052602160045260246000fd5b610d8d82611368565b6007811115610dc5577f4e487b7100000000000000000000000000000000000000000000000000000000600052602160045260246000fd5b14610e05576040517f08c379a0000000000000000000000000000000000000000000000000000000008152600401610dfc90615066565b60405180910390fd5b6000600660009054906101000a900473ffffffffffffffffffffffffffffffffffffffff1673ffffffffffffffffffffffffffffffffffffffff1663f27a0c926040518163ffffffff1660e01b815260040160206040518083038186803b158015610e6f57600080fd5b505afa158015610e83573d6000803e3d6000fd5b505050506040513d601f19601f82011682018060405250810190610ea79190614185565b9050600660009054906101000a900473ffffffffffffffffffffffffffffffffffffffff1673ffffffffffffffffffffffffffffffffffffffff1663b1c5f4278888886000896040518663ffffffff1660e01b8152600401610f0d959493929190614c3d565b60206040518083038186803b158015610f2557600080fd5b505afa158015610f39573d6000803e3d6000fd5b505050506040513d601f19601f82011682018060405250810190610f5d91906140e1565b6007600084815260200190815260200160002081905550600660009054906101000a900473ffffffffffffffffffffffffffffffffffffffff1673ffffffffffffffffffffffffffffffffffffffff16638f2a0bb0888888600089876040518763ffffffff1660e01b8152600401610fda96959493929190614ca5565b600060405180830381600087803b158015610ff457600080fd5b505af1158015611008573d6000803e3d6000fd5b505050507f9a2e42fd6722813d69113e7d0079d3d940171428df7373df9c7f7617cfda289282824261103a919061555d565b6040516110489291906151f1565b60405180910390a18192505050949350505050565b60008061106c86868686611950565b9050600061107982611368565b9050600460078111156110b5577f4e487b7100000000000000000000000000000000000000000000000000000000600052602160045260246000fd5b8160078111156110ee577f4e487b7100000000000000000000000000000000000000000000000000000000600052602160045260246000fd5b148061116a57506005600781111561112f577f4e487b7100000000000000000000000000000000000000000000000000000000600052602160045260246000fd5b816007811115611168577f4e487b7100000000000000000000000000000000000000000000000000000000600052602160045260246000fd5b145b6111a9576040517f08c379a00000000000000000000000000000000000000000000000000000000081526004016111a090615066565b60405180910390fd5b600180600084815260200190815260200160002060020160006101000a81548160ff0219169083151502179055507f712ae1383f79ac853f8d882153778e0260ef8f03b504e2866e0593e04d2b291f826040516112069190615126565b60405180910390a161121b8288888888611eee565b611228828888888861201e565b6112358288888888612032565b8192505050949350505050565b600061129f600160008481526020019081526020016000206000016040518060200160405290816000820160009054906101000a900467ffffffffffffffff1667ffffffffffffffff1667ffffffffffffffff168152505061208d565b67ffffffffffffffff169050919050565b7fb3b3f3b703cd84ce352197dcff232b1b5d3cfb2025ce47cf04742d0651f1af8881565b6000600854905090565b60008061133f6113377f150214d74d59b7d1e90c73fc22ef3d991dd0a76b046543d4d80ab92d2a50328f898960405160200161131c93929190614da4565b60405160208183030381529060405280519060200120611b1a565b868686611b34565b905061135c8782886040518060200160405280600081525061209b565b91505095945050505050565b6000611373826120bb565b9050919050565b60095481565b60006004600084815260200190815260200160002060030160008373ffffffffffffffffffffffffffffffffffffffff1673ffffffffffffffffffffffffffffffffffffffff16815260200190815260200160002060009054906101000a900460ff16905092915050565b600080600080600460008681526020019081526020016000209050806000015481600101548260020154935093509350509193909250565b60606040518060400160405280600181526020017f3100000000000000000000000000000000000000000000000000000000000000815250905090565b60008061146b611d68565b90506114888482856040518060200160405280600081525061209b565b91505092915050565b60008061149c611d68565b90506114ef87828888888080601f016020809104026020016040519081016040528093929190818152602001838380828437600081840152601f19601f8201169050808301925050505050505087611b5f565b91505095945050505050565b600080611506611d68565b905061155886828787878080601f016020809104026020016040519081016040528093929190818152602001838380828437600081840152601f19601f8201169050808301925050505050505061209b565b915050949350505050565b6000611571858585856122f9565b9050949350505050565b60085481565b60006064905090565b6000611597848484612626565b90509392505050565b6000600554905090565b6115b2610a87565b73ffffffffffffffffffffffffffffffffffffffff166115d0611d68565b73ffffffffffffffffffffffffffffffffffffffff1614611626576040517f08c379a000000000000000000000000000000000000000000000000000000000815260040161161d90614f06565b60405180910390fd5b3073ffffffffffffffffffffffffffffffffffffffff16611645610a87565b73ffffffffffffffffffffffffffffffffffffffff161461169a57600061166a611d70565b604051611678929190614b0f565b604051809103902090505b8061168e6002611d7d565b1461169857611683565b505b6116a3816126dc565b50565b600080600660009054906101000a900473ffffffffffffffffffffffffffffffffffffffff1673ffffffffffffffffffffffffffffffffffffffff1663d45c443560076000868152602001908152602001600020546040518263ffffffff1660e01b81526004016117179190614d36565b60206040518083038186803b15801561172f57600080fd5b505afa158015611743573d6000803e3d6000fd5b505050506040513d601f19601f820116820180604052508101906117679190614185565b905060018114611777578061177a565b60005b915050919050565b600090565b600063bc197c8160e01b905095945050505050565b60006117f9600160008481526020019081526020016000206001016040518060200160405290816000820160009054906101000a900467ffffffffffffffff1667ffffffffffffffff1667ffffffffffffffff168152505061208d565b67ffffffffffffffff169050919050565b611812610a87565b73ffffffffffffffffffffffffffffffffffffffff16611830611d68565b73ffffffffffffffffffffffffffffffffffffffff1614611886576040517f08c379a000000000000000000000000000000000000000000000000000000000815260040161187d90614f06565b60405180910390fd5b3073ffffffffffffffffffffffffffffffffffffffff166118a5610a87565b73ffffffffffffffffffffffffffffffffffffffff16146118fa5760006118ca611d70565b6040516118d8929190614b0f565b604051809103902090505b806118ee6002611d7d565b146118f8576118e3565b505b6119498483838080601f016020809104026020016040519081016040528093929190818152602001838380828437600081840152601f19601f820116905080830192505050505050508561277b565b5050505050565b6000848484846040516020016119699493929190614be3565b6040516020818303038152906040528051906020012060001c9050949350505050565b6000600660009054906101000a900473ffffffffffffffffffffffffffffffffffffffff16905090565b60606040518060400160405280602081526020017f737570706f72743d627261766f2671756f72756d3d666f722c6162737461696e815250905090565b7f150214d74d59b7d1e90c73fc22ef3d991dd0a76b046543d4d80ab92d2a50328f81565b6000611a2383836127aa565b905092915050565b600063f23a6e6160e01b905095945050505050565b6000611a4b826127c6565b9050919050565b7f000000000000000000000000000000000000000000000000000000000000000081565b6000600660009054906101000a900473ffffffffffffffffffffffffffffffffffffffff16905090565b60007f6e665ced000000000000000000000000000000000000000000000000000000007bffffffffffffffffffffffffffffffffffffffffffffffffffffffff1916827bffffffffffffffffffffffffffffffffffffffffffffffffffffffff19161480611b135750611b128261289c565b5b9050919050565b6000611b2d611b27612a01565b83612b1b565b9050919050565b6000806000611b4587878787612b4e565b91509150611b5281612c5b565b8192505050949350505050565b60008060016000888152602001908152602001600020905060016007811115611bb1577f4e487b7100000000000000000000000000000000000000000000000000000000600052602160045260246000fd5b611bba88611368565b6007811115611bf2577f4e487b7100000000000000000000000000000000000000000000000000000000600052602160045260246000fd5b14611c32576040517f08c379a0000000000000000000000000000000000000000000000000000000008152600401611c2990614fe6565b60405180910390fd5b6000611c9187611c81846000016040518060200160405290816000820160009054906101000a900467ffffffffffffffff1667ffffffffffffffff1667ffffffffffffffff168152505061208d565b67ffffffffffffffff1686612626565b9050611ca08888888488612fac565b600084511415611d03578673ffffffffffffffffffffffffffffffffffffffff167fb8e138887d0aa13bab447e82de9d5c1777041ecd21ca36ba824ff1e6c07ddda489888489604051611cf69493929190615251565b60405180910390a2611d5a565b8673ffffffffffffffffffffffffffffffffffffffff167fe2babfbac5889a709b63bb7f598b324e08bc5a4fb9ec647fb3cbc9ec07eb87128988848989604051611d5195949392919061529d565b60405180910390a25b809250505095945050505050565b600033905090565b3660008036915091509091565b6000611d8882613225565b15611dbf576040517f3db2a12a00000000000000000000000000000000000000000000000000000000815260040160405180910390fd5b60008260000160009054906101000a9004600f0b905082600101600082600f0b600f0b815260200190815260200160002054915082600101600082600f0b600f0b815260200190815260200160002060009055600181018360000160006101000a8154816fffffffffffffffffffffffffffffffff0219169083600f0b6fffffffffffffffffffffffffffffffff16021790555050919050565b611e61611581565b811115611ea3576040517f08c379a0000000000000000000000000000000000000000000000000000000008152600401611e9a90614f26565b60405180910390fd5b60006005549050816005819055507f0553476bf02ef2726e8ce5ced78d63e26e602e4a2257b1f559418e24b46339978183604051611ee29291906151f1565b60405180910390a15050565b3073ffffffffffffffffffffffffffffffffffffffff16611f0d610a87565b73ffffffffffffffffffffffffffffffffffffffff16146120175760005b8451811015612015573073ffffffffffffffffffffffffffffffffffffffff16858281518110611f84577f4e487b7100000000000000000000000000000000000000000000000000000000600052603260045260246000fd5b602002602001015173ffffffffffffffffffffffffffffffffffffffff16141561200457612003838281518110611fe4577f4e487b7100000000000000000000000000000000000000000000000000000000600052603260045260246000fd5b602002602001015180519060200120600261325a90919063ffffffff16565b5b8061200e90615897565b9050611f2b565b505b5050505050565b61202b85858585856132d6565b5050505050565b3073ffffffffffffffffffffffffffffffffffffffff16612051610a87565b73ffffffffffffffffffffffffffffffffffffffff1614612086576120766002613225565b612085576120846002613374565b5b5b5050505050565b600081600001519050919050565b60006120b1858585856120ac6133f5565b611b5f565b9050949350505050565b6000806120c78361340c565b905060046007811115612103577f4e487b7100000000000000000000000000000000000000000000000000000000600052602160045260246000fd5b81600781111561213c577f4e487b7100000000000000000000000000000000000000000000000000000000600052602160045260246000fd5b1461214a57809150506122f4565b6000600760008581526020019081526020016000205490506000801b8114156121775781925050506122f4565b600660009054906101000a900473ffffffffffffffffffffffffffffffffffffffff1673ffffffffffffffffffffffffffffffffffffffff16632ab0f529826040518263ffffffff1660e01b81526004016121d29190614d36565b60206040518083038186803b1580156121ea57600080fd5b505afa1580156121fe573d6000803e3d6000fd5b505050506040513d601f19601f8201168201806040525081019061222291906140b8565b15612232576007925050506122f4565b600660009054906101000a900473ffffffffffffffffffffffffffffffffffffffff1673ffffffffffffffffffffffffffffffffffffffff1663584b153e826040518263ffffffff1660e01b815260040161228d9190614d36565b60206040518083038186803b1580156122a557600080fd5b505afa1580156122b9573d6000803e3d6000fd5b505050506040513d601f19601f820116820180604052508101906122dd91906140b8565b156122ed576005925050506122f4565b6002925050505b919050565b6000612303611782565b61232061230e611d68565b60014361231b919061567c565b611a17565b1015612361576040517f08c379a000000000000000000000000000000000000000000000000000000000815260040161235890615106565b60405180910390fd5b60006123768686868680519060200120611950565b905084518651146123bc576040517f08c379a00000000000000000000000000000000000000000000000000000000081526004016123b390614f66565b60405180910390fd5b8351865114612400576040517f08c379a00000000000000000000000000000000000000000000000000000000081526004016123f790614f66565b60405180910390fd5b6000865111612444576040517f08c379a000000000000000000000000000000000000000000000000000000000815260040161243b90615006565b60405180910390fd5b60006001600083815260200190815260200160002090506124a4816000016040518060200160405290816000820160009054906101000a900467ffffffffffffffff1667ffffffffffffffff1667ffffffffffffffff1681525050613521565b6124e3576040517f08c379a00000000000000000000000000000000000000000000000000000000081526004016124da906150c6565b60405180910390fd5b60006124f56124f06112d4565b61353b565b6124fe4361353b565b61250891906155b3565b9050600061251c612517610aa8565b61353b565b8261252791906155b3565b905061253f828460000161359290919063ffffffff16565b612555818460010161359290919063ffffffff16565b7f7d84a6263ae0d98d3329bd7b46bb4e8d6f98cd35a7adb45c274c8b7fd5ebd5e08461257f611d68565b8b8b8d5167ffffffffffffffff8111156125c2577f4e487b7100000000000000000000000000000000000000000000000000000000600052604160045260246000fd5b6040519080825280602002602001820160405280156125f557816020015b60608152602001906001900390816125e05790505b508c88888e60405161260f99989796959493929190615141565b60405180910390a183945050505050949350505050565b60007f000000000000000000000000000000000000000000000000000000000000000073ffffffffffffffffffffffffffffffffffffffff16633a46b1a885856040518363ffffffff1660e01b8152600401612683929190614bba565b60206040518083038186803b15801561269b57600080fd5b505afa1580156126af573d6000803e3d6000fd5b505050506040513d601f19601f820116820180604052508101906126d39190614185565b90509392505050565b7f08f74ea46ef7894f65eabfb5e6e695de773a000b47c529ab559178069b226401600660009054906101000a900473ffffffffffffffffffffffffffffffffffffffff168260405161272f929190614b91565b60405180910390a180600660006101000a81548173ffffffffffffffffffffffffffffffffffffffff021916908373ffffffffffffffffffffffffffffffffffffffff16021790555050565b60606127a1848484604051806060016040528060298152602001615fa2602991396135c1565b90509392505050565b60006127be83836127b96133f5565b612626565b905092915050565b60006127d0611581565b6127d86115a0565b7f000000000000000000000000000000000000000000000000000000000000000073ffffffffffffffffffffffffffffffffffffffff16638e539e8c856040518263ffffffff1660e01b81526004016128319190615126565b60206040518083038186803b15801561284957600080fd5b505afa15801561285d573d6000803e3d6000fd5b505050506040513d601f19601f820116820180604052508101906128819190614185565b61288b9190615622565b61289591906155f1565b9050919050565b6000639a802a6d60e01b630342018160e01b635f398a1460e01b7f79dd796f000000000000000000000000000000000000000000000000000000001818187bffffffffffffffffffffffffffffffffffffffffffffffffffffffff1916827bffffffffffffffffffffffffffffffffffffffffffffffffffffffff1916148061298257507f79dd796f000000000000000000000000000000000000000000000000000000007bffffffffffffffffffffffffffffffffffffffffffffffffffffffff1916827bffffffffffffffffffffffffffffffffffffffffffffffffffffffff1916145b806129ea57507f4e2312e0000000000000000000000000000000000000000000000000000000007bffffffffffffffffffffffffffffffffffffffffffffffffffffffff1916827bffffffffffffffffffffffffffffffffffffffffffffffffffffffff1916145b806129fa57506129f9826136d5565b5b9050919050565b60007f000000000000000000000000000000000000000000000000000000000000000073ffffffffffffffffffffffffffffffffffffffff163073ffffffffffffffffffffffffffffffffffffffff16148015612a7d57507f000000000000000000000000000000000000000000000000000000000000000046145b15612aaa577f00000000000000000000000000000000000000000000000000000000000000009050612b18565b612b157f00000000000000000000000000000000000000000000000000000000000000007f00000000000000000000000000000000000000000000000000000000000000007f000000000000000000000000000000000000000000000000000000000000000061373f565b90505b90565b60008282604051602001612b30929190614b3f565b60405160208183030381529060405280519060200120905092915050565b6000807f7fffffffffffffffffffffffffffffff5d576e7357a4501ddfe92f46681b20a08360001c1115612b89576000600391509150612c52565b601b8560ff1614158015612ba15750601c8560ff1614155b15612bb3576000600491509150612c52565b600060018787878760405160008152602001604052604051612bd89493929190614e2e565b6020604051602081039080840390855afa158015612bfa573d6000803e3d6000fd5b505050602060405103519050600073ffffffffffffffffffffffffffffffffffffffff168173ffffffffffffffffffffffffffffffffffffffff161415612c4957600060019250925050612c52565b80600092509250505b94509492505050565b60006004811115612c95577f4e487b7100000000000000000000000000000000000000000000000000000000600052602160045260246000fd5b816004811115612cce577f4e487b7100000000000000000000000000000000000000000000000000000000600052602160045260246000fd5b1415612cd957612fa9565b60016004811115612d13577f4e487b7100000000000000000000000000000000000000000000000000000000600052602160045260246000fd5b816004811115612d4c577f4e487b7100000000000000000000000000000000000000000000000000000000600052602160045260246000fd5b1415612d8d576040517f08c379a0000000000000000000000000000000000000000000000000000000008152600401612d8490614ee6565b60405180910390fd5b60026004811115612dc7577f4e487b7100000000000000000000000000000000000000000000000000000000600052602160045260246000fd5b816004811115612e00577f4e487b7100000000000000000000000000000000000000000000000000000000600052602160045260246000fd5b1415612e41576040517f08c379a0000000000000000000000000000000000000000000000000000000008152600401612e3890614f46565b60405180910390fd5b60036004811115612e7b577f4e487b7100000000000000000000000000000000000000000000000000000000600052602160045260246000fd5b816004811115612eb4577f4e487b7100000000000000000000000000000000000000000000000000000000600052602160045260246000fd5b1415612ef5576040517f08c379a0000000000000000000000000000000000000000000000000000000008152600401612eec90614f86565b60405180910390fd5b600480811115612f2e577f4e487b7100000000000000000000000000000000000000000000000000000000600052602160045260246000fd5b816004811115612f67577f4e487b7100000000000000000000000000000000000000000000000000000000600052602160045260246000fd5b1415612fa8576040517f08c379a0000000000000000000000000000000000000000000000000000000008152600401612f9f90615026565b60405180910390fd5b5b50565b60006004600087815260200190815260200160002090508060030160008673ffffffffffffffffffffffffffffffffffffffff1673ffffffffffffffffffffffffffffffffffffffff16815260200190815260200160002060009054906101000a900460ff1615613052576040517f08c379a000000000000000000000000000000000000000000000000000000000815260040161304990614fa6565b60405180910390fd5b60018160030160008773ffffffffffffffffffffffffffffffffffffffff1673ffffffffffffffffffffffffffffffffffffffff16815260200190815260200160002060006101000a81548160ff021916908315150217905550600060028111156130e6577f4e487b7100000000000000000000000000000000000000000000000000000000600052602160045260246000fd5b60ff168460ff1614156131135782816000016000828254613107919061555d565b9250508190555061321d565b6001600281111561314d577f4e487b7100000000000000000000000000000000000000000000000000000000600052602160045260246000fd5b60ff168460ff16141561317a578281600101600082825461316e919061555d565b9250508190555061321c565b6002808111156131b3577f4e487b7100000000000000000000000000000000000000000000000000000000600052602160045260246000fd5b60ff168460ff1614156131e057828160020160008282546131d4919061555d565b9250508190555061321b565b6040517f08c379a0000000000000000000000000000000000000000000000000000000008152600401613212906150a6565b60405180910390fd5b5b5b505050505050565b60008160000160009054906101000a9004600f0b600f0b8260000160109054906101000a9004600f0b600f0b13159050919050565b60008260000160109054906101000a9004600f0b90508183600101600083600f0b600f0b815260200190815260200160002081905550600181018360000160106101000a8154816fffffffffffffffffffffffffffffffff0219169083600f0b6fffffffffffffffffffffffffffffffff160217905550505050565b600660009054906101000a900473ffffffffffffffffffffffffffffffffffffffff1673ffffffffffffffffffffffffffffffffffffffff1663e38335e5348686866000876040518763ffffffff1660e01b815260040161333b959493929190614c3d565b6000604051808303818588803b15801561335457600080fd5b505af1158015613368573d6000803e3d6000fd5b50505050505050505050565b60008160000160006101000a8154816fffffffffffffffffffffffffffffffff0219169083600f0b6fffffffffffffffffffffffffffffffff16021790555060008160000160106101000a8154816fffffffffffffffffffffffffffffffff0219169083600f0b6fffffffffffffffffffffffffffffffff16021790555050565b606060405180602001604052806000815250905090565b6000806001600084815260200190815260200160002090508060020160009054906101000a900460ff161561344557600791505061351c565b8060020160019054906101000a900460ff161561346657600291505061351c565b600061347184611242565b905060008114156134b7576040517f08c379a00000000000000000000000000000000000000000000000000000000081526004016134ae90615086565b60405180910390fd5b4381106134c95760009250505061351c565b60006134d48561179c565b90504381106134e9576001935050505061351c565b6134f285613779565b80156135035750613502856137c0565b5b15613514576004935050505061351c565b600393505050505b919050565b600080826000015167ffffffffffffffff16149050919050565b600067ffffffffffffffff801682111561358a576040517f08c379a000000000000000000000000000000000000000000000000000000000815260040161358190615046565b60405180910390fd5b819050919050565b808260000160006101000a81548167ffffffffffffffff021916908367ffffffffffffffff1602179055505050565b606082471015613606576040517f08c379a00000000000000000000000000000000000000000000000000000000081526004016135fd90614fc6565b60405180910390fd5b61360f856137eb565b61364e576040517f08c379a0000000000000000000000000000000000000000000000000000000008152600401613645906150e6565b60405180910390fd5b6000808673ffffffffffffffffffffffffffffffffffffffff1685876040516136779190614b28565b60006040518083038185875af1925050503d80600081146136b4576040519150601f19603f3d011682016040523d82523d6000602084013e6136b9565b606091505b50915091506136c982828661380e565b92505050949350505050565b60007f01ffc9a7000000000000000000000000000000000000000000000000000000007bffffffffffffffffffffffffffffffffffffffffffffffffffffffff1916827bffffffffffffffffffffffffffffffffffffffffffffffffffffffff1916149050919050565b6000838383463060405160200161375a959493929190614d51565b6040516020818303038152906040528051906020012090509392505050565b600080600460008481526020019081526020016000209050806002015481600101546137a5919061555d565b6137b66137b185611242565b611a40565b1115915050919050565b6000806004600084815260200190815260200160002090508060000154816001015411915050919050565b6000808273ffffffffffffffffffffffffffffffffffffffff163b119050919050565b6060831561381e5782905061386e565b6000835111156138315782518084602001fd5b816040517f08c379a00000000000000000000000000000000000000000000000000000000081526004016138659190614ec4565b60405180910390fd5b9392505050565b600061388861388384615323565b6152fe565b905080838252602082019050828560208602820111156138a757600080fd5b60005b858110156138d757816138bd8882613a4f565b8452602084019350602083019250506001810190506138aa565b5050509392505050565b60006138f46138ef8461534f565b6152fe565b9050808382526020820190508285602086028201111561391357600080fd5b60005b8581101561395d57813567ffffffffffffffff81111561393557600080fd5b8086016139428982613b80565b85526020850194506020840193505050600181019050613916565b5050509392505050565b600061397a6139758461537b565b6152fe565b9050808382526020820190508285602086028201111561399957600080fd5b60005b858110156139c957816139af8882613c33565b84526020840193506020830192505060018101905061399c565b5050509392505050565b60006139e66139e1846153a7565b6152fe565b9050828152602081018484840111156139fe57600080fd5b613a098482856157f2565b509392505050565b6000613a24613a1f846153d8565b6152fe565b905082815260208101848484011115613a3c57600080fd5b613a478482856157f2565b509392505050565b600081359050613a5e81615f00565b92915050565b600082601f830112613a7557600080fd5b8135613a85848260208601613875565b91505092915050565b600082601f830112613a9f57600080fd5b8135613aaf8482602086016138e1565b91505092915050565b600082601f830112613ac957600080fd5b8135613ad9848260208601613967565b91505092915050565b600081519050613af181615f17565b92915050565b600081359050613b0681615f2e565b92915050565b600081519050613b1b81615f2e565b92915050565b600081359050613b3081615f45565b92915050565b60008083601f840112613b4857600080fd5b8235905067ffffffffffffffff811115613b6157600080fd5b602083019150836001820283011115613b7957600080fd5b9250929050565b600082601f830112613b9157600080fd5b8135613ba18482602086016139d3565b91505092915050565b600081359050613bb981615f5c565b92915050565b60008083601f840112613bd157600080fd5b8235905067ffffffffffffffff811115613bea57600080fd5b602083019150836001820283011115613c0257600080fd5b9250929050565b600082601f830112613c1a57600080fd5b8135613c2a848260208601613a11565b91505092915050565b600081359050613c4281615f73565b92915050565b600081519050613c5781615f73565b92915050565b600081359050613c6c81615f8a565b92915050565b600080600080600060a08688031215613c8a57600080fd5b6000613c9888828901613a4f565b9550506020613ca988828901613a4f565b945050604086013567ffffffffffffffff811115613cc657600080fd5b613cd288828901613ab8565b935050606086013567ffffffffffffffff811115613cef57600080fd5b613cfb88828901613ab8565b925050608086013567ffffffffffffffff811115613d1857600080fd5b613d2488828901613b80565b9150509295509295909350565b60008060008060808587031215613d4757600080fd5b6000613d5587828801613a4f565b9450506020613d6687828801613a4f565b9350506040613d7787828801613c33565b925050606085013567ffffffffffffffff811115613d9457600080fd5b613da087828801613b80565b91505092959194509250565b600080600080600060a08688031215613dc457600080fd5b6000613dd288828901613a4f565b9550506020613de388828901613a4f565b9450506040613df488828901613c33565b9350506060613e0588828901613c33565b925050608086013567ffffffffffffffff811115613e2257600080fd5b613e2e88828901613b80565b9150509295509295909350565b60008060408385031215613e4e57600080fd5b6000613e5c85828601613a4f565b9250506020613e6d85828601613c33565b9150509250929050565b60008060008060608587031215613e8d57600080fd5b6000613e9b87828801613a4f565b9450506020613eac87828801613c33565b935050604085013567ffffffffffffffff811115613ec957600080fd5b613ed587828801613b36565b925092505092959194509250565b600080600060608486031215613ef857600080fd5b6000613f0686828701613a4f565b9350506020613f1786828701613c33565b925050604084013567ffffffffffffffff811115613f3457600080fd5b613f4086828701613b80565b9150509250925092565b60008060008060808587031215613f6057600080fd5b600085013567ffffffffffffffff811115613f7a57600080fd5b613f8687828801613a64565b945050602085013567ffffffffffffffff811115613fa357600080fd5b613faf87828801613ab8565b935050604085013567ffffffffffffffff811115613fcc57600080fd5b613fd887828801613a8e565b9250506060613fe987828801613af7565b91505092959194509250565b6000806000806080858703121561400b57600080fd5b600085013567ffffffffffffffff81111561402557600080fd5b61403187828801613a64565b945050602085013567ffffffffffffffff81111561404e57600080fd5b61405a87828801613ab8565b935050604085013567ffffffffffffffff81111561407757600080fd5b61408387828801613a8e565b925050606085013567ffffffffffffffff8111156140a057600080fd5b6140ac87828801613c09565b91505092959194509250565b6000602082840312156140ca57600080fd5b60006140d884828501613ae2565b91505092915050565b6000602082840312156140f357600080fd5b600061410184828501613b0c565b91505092915050565b60006020828403121561411c57600080fd5b600061412a84828501613b21565b91505092915050565b60006020828403121561414557600080fd5b600061415384828501613baa565b91505092915050565b60006020828403121561416e57600080fd5b600061417c84828501613c33565b91505092915050565b60006020828403121561419757600080fd5b60006141a584828501613c48565b91505092915050565b600080604083850312156141c157600080fd5b60006141cf85828601613c33565b92505060206141e085828601613a4f565b9150509250929050565b600080604083850312156141fd57600080fd5b600061420b85828601613c33565b925050602061421c85828601613c5d565b9150509250929050565b6000806000806060858703121561423c57600080fd5b600061424a87828801613c33565b945050602061425b87828801613c5d565b935050604085013567ffffffffffffffff81111561427857600080fd5b61428487828801613bbf565b925092505092959194509250565b6000806000806000608086880312156142aa57600080fd5b60006142b888828901613c33565b95505060206142c988828901613c5d565b945050604086013567ffffffffffffffff8111156142e657600080fd5b6142f288828901613bbf565b9350935050606086013567ffffffffffffffff81111561431157600080fd5b61431d88828901613b80565b9150509295509295909350565b60008060008060008060008060e0898b03121561434657600080fd5b60006143548b828c01613c33565b98505060206143658b828c01613c5d565b975050604089013567ffffffffffffffff81111561438257600080fd5b61438e8b828c01613bbf565b9650965050606089013567ffffffffffffffff8111156143ad57600080fd5b6143b98b828c01613b80565b94505060806143ca8b828c01613c5d565b93505060a06143db8b828c01613af7565b92505060c06143ec8b828c01613af7565b9150509295985092959890939650565b600080600080600060a0868803121561441457600080fd5b600061442288828901613c33565b955050602061443388828901613c5d565b945050604061444488828901613c5d565b935050606061445588828901613af7565b925050608061446688828901613af7565b9150509295509295909350565b600061447f83836144cb565b60208301905092915050565b600061449783836146f8565b905092915050565b60006144ab83836147c8565b905092915050565b60006144bf8383614ad3565b60208301905092915050565b6144d4816156b0565b82525050565b6144e3816156b0565b82525050565b60006144f482615449565b6144fe81856154bf565b935061450983615409565b8060005b8381101561453a5781516145218882614473565b975061452c8361548b565b92505060018101905061450d565b5085935050505092915050565b600061455282615454565b61455c81856154d0565b93508360208202850161456e85615419565b8060005b858110156145aa578484038952815161458b858261448b565b945061459683615498565b925060208a01995050600181019050614572565b50829750879550505050505092915050565b60006145c78261545f565b6145d181856154e1565b9350836020820285016145e385615429565b8060005b8581101561461f5784840389528151614600858261449f565b945061460b836154a5565b925060208a019950506001810190506145e7565b50829750879550505050505092915050565b600061463c8261546a565b61464681856154f2565b935061465183615439565b8060005b8381101561468257815161466988826144b3565b9750614674836154b2565b925050600181019050614655565b5085935050505092915050565b614698816156d4565b82525050565b6146a7816156e0565b82525050565b6146be6146b9826156e0565b6158e0565b82525050565b6146cd816156ea565b82525050565b60006146df8385615525565b93506146ec8385846157f2565b82840190509392505050565b600061470382615475565b61470d8185615503565b935061471d818560208601615801565b614726816159d5565b840191505092915050565b600061473c82615475565b6147468185615514565b9350614756818560208601615801565b61475f816159d5565b840191505092915050565b600061477582615475565b61477f8185615525565b935061478f818560208601615801565b80840191505092915050565b6147a481615790565b82525050565b6147b3816157b4565b82525050565b6147c2816157c6565b82525050565b60006147d382615480565b6147dd8185615530565b93506147ed818560208601615801565b6147f6816159d5565b840191505092915050565b600061480c82615480565b6148168185615541565b9350614826818560208601615801565b61482f816159d5565b840191505092915050565b6000614847601883615541565b9150614852826159f3565b602082019050919050565b600061486a601883615541565b915061487582615a1c565b602082019050919050565b600061488d604383615541565b915061489882615a45565b606082019050919050565b60006148b0601f83615541565b91506148bb82615aba565b602082019050919050565b60006148d3600283615552565b91506148de82615ae3565b600282019050919050565b60006148f6602183615541565b915061490182615b0c565b604082019050919050565b6000614919602283615541565b915061492482615b5b565b604082019050919050565b600061493c602783615541565b915061494782615baa565b604082019050919050565b600061495f602683615541565b915061496a82615bf9565b604082019050919050565b6000614982602383615541565b915061498d82615c48565b604082019050919050565b60006149a5601883615541565b91506149b082615c97565b602082019050919050565b60006149c8602283615541565b91506149d382615cc0565b604082019050919050565b60006149eb602683615541565b91506149f682615d0f565b604082019050919050565b6000614a0e602183615541565b9150614a1982615d5e565b604082019050919050565b6000614a31601d83615541565b9150614a3c82615dad565b602082019050919050565b6000614a54603583615541565b9150614a5f82615dd6565b604082019050919050565b6000614a77602183615541565b9150614a8282615e25565b604082019050919050565b6000614a9a601d83615541565b9150614aa582615e74565b602082019050919050565b6000614abd603183615541565b9150614ac882615e9d565b604082019050919050565b614adc81615765565b82525050565b614aeb81615765565b82525050565b614afa816157e0565b82525050565b614b0981615783565b82525050565b6000614b1c8284866146d3565b91508190509392505050565b6000614b34828461476a565b915081905092915050565b6000614b4a826148c6565b9150614b5682856146ad565b602082019150614b6682846146ad565b6020820191508190509392505050565b6000602082019050614b8b60008301846144da565b92915050565b6000604082019050614ba660008301856144da565b614bb360208301846144da565b9392505050565b6000604082019050614bcf60008301856144da565b614bdc6020830184614ae2565b9392505050565b60006080820190508181036000830152614bfd81876144e9565b90508181036020830152614c118186614631565b90508181036040830152614c258185614547565b9050614c34606083018461469e565b95945050505050565b600060a0820190508181036000830152614c5781886144e9565b90508181036020830152614c6b8187614631565b90508181036040830152614c7f8186614547565b9050614c8e60608301856147b9565b614c9b608083018461469e565b9695505050505050565b600060c0820190508181036000830152614cbf81896144e9565b90508181036020830152614cd38188614631565b90508181036040830152614ce78187614547565b9050614cf660608301866147b9565b614d03608083018561469e565b614d1060a0830184614ae2565b979650505050505050565b6000602082019050614d30600083018461468f565b92915050565b6000602082019050614d4b600083018461469e565b92915050565b600060a082019050614d66600083018861469e565b614d73602083018761469e565b614d80604083018661469e565b614d8d6060830185614ae2565b614d9a60808301846144da565b9695505050505050565b6000606082019050614db9600083018661469e565b614dc66020830185614ae2565b614dd36040830184614b00565b949350505050565b600060a082019050614df0600083018861469e565b614dfd6020830187614ae2565b614e0a6040830186614b00565b614e17606083018561469e565b614e24608083018461469e565b9695505050505050565b6000608082019050614e43600083018761469e565b614e506020830186614b00565b614e5d604083018561469e565b614e6a606083018461469e565b95945050505050565b6000602082019050614e8860008301846146c4565b92915050565b6000602082019050614ea3600083018461479b565b92915050565b6000602082019050614ebe60008301846147aa565b92915050565b60006020820190508181036000830152614ede8184614801565b905092915050565b60006020820190508181036000830152614eff8161483a565b9050919050565b60006020820190508181036000830152614f1f8161485d565b9050919050565b60006020820190508181036000830152614f3f81614880565b9050919050565b60006020820190508181036000830152614f5f816148a3565b9050919050565b60006020820190508181036000830152614f7f816148e9565b9050919050565b60006020820190508181036000830152614f9f8161490c565b9050919050565b60006020820190508181036000830152614fbf8161492f565b9050919050565b60006020820190508181036000830152614fdf81614952565b9050919050565b60006020820190508181036000830152614fff81614975565b9050919050565b6000602082019050818103600083015261501f81614998565b9050919050565b6000602082019050818103600083015261503f816149bb565b9050919050565b6000602082019050818103600083015261505f816149de565b9050919050565b6000602082019050818103600083015261507f81614a01565b9050919050565b6000602082019050818103600083015261509f81614a24565b9050919050565b600060208201905081810360008301526150bf81614a47565b9050919050565b600060208201905081810360008301526150df81614a6a565b9050919050565b600060208201905081810360008301526150ff81614a8d565b9050919050565b6000602082019050818103600083015261511f81614ab0565b9050919050565b600060208201905061513b6000830184614ae2565b92915050565b600061012082019050615157600083018c614ae2565b615164602083018b6144da565b8181036040830152615176818a6144e9565b9050818103606083015261518a8189614631565b9050818103608083015261519e81886145bc565b905081810360a08301526151b28187614547565b90506151c160c0830186614af1565b6151ce60e0830185614af1565b8181036101008301526151e18184614801565b90509a9950505050505050505050565b60006040820190506152066000830185614ae2565b6152136020830184614ae2565b9392505050565b600060608201905061522f6000830186614ae2565b61523c6020830185614ae2565b6152496040830184614ae2565b949350505050565b60006080820190506152666000830187614ae2565b6152736020830186614b00565b6152806040830185614ae2565b81810360608301526152928184614801565b905095945050505050565b600060a0820190506152b26000830188614ae2565b6152bf6020830187614b00565b6152cc6040830186614ae2565b81810360608301526152de8185614801565b905081810360808301526152f28184614731565b90509695505050505050565b6000615308615319565b90506153148282615866565b919050565b6000604051905090565b600067ffffffffffffffff82111561533e5761533d6159a6565b5b602082029050602081019050919050565b600067ffffffffffffffff82111561536a576153696159a6565b5b602082029050602081019050919050565b600067ffffffffffffffff821115615396576153956159a6565b5b602082029050602081019050919050565b600067ffffffffffffffff8211156153c2576153c16159a6565b5b6153cb826159d5565b9050602081019050919050565b600067ffffffffffffffff8211156153f3576153f26159a6565b5b6153fc826159d5565b9050602081019050919050565b6000819050602082019050919050565b6000819050602082019050919050565b6000819050602082019050919050565b6000819050602082019050919050565b600081519050919050565b600081519050919050565b600081519050919050565b600081519050919050565b600081519050919050565b600081519050919050565b6000602082019050919050565b6000602082019050919050565b6000602082019050919050565b6000602082019050919050565b600082825260208201905092915050565b600082825260208201905092915050565b600082825260208201905092915050565b600082825260208201905092915050565b600082825260208201905092915050565b600082825260208201905092915050565b600081905092915050565b600082825260208201905092915050565b600082825260208201905092915050565b600081905092915050565b600061556882615765565b915061557383615765565b9250827fffffffffffffffffffffffffffffffffffffffffffffffffffffffffffffffff038211156155a8576155a76158ea565b5b828201905092915050565b60006155be8261576f565b91506155c98361576f565b92508267ffffffffffffffff038211156155e6576155e56158ea565b5b828201905092915050565b60006155fc82615765565b915061560783615765565b92508261561757615616615919565b5b828204905092915050565b600061562d82615765565b915061563883615765565b9250817fffffffffffffffffffffffffffffffffffffffffffffffffffffffffffffffff0483118215151615615671576156706158ea565b5b828202905092915050565b600061568782615765565b915061569283615765565b9250828210156156a5576156a46158ea565b5b828203905092915050565b60006156bb82615745565b9050919050565b60006156cd82615745565b9050919050565b60008115159050919050565b6000819050919050565b60007fffffffff0000000000000000000000000000000000000000000000000000000082169050919050565b6000615721826156c2565b9050919050565b600081905061573682615eec565b919050565b6000819050919050565b600073ffffffffffffffffffffffffffffffffffffffff82169050919050565b6000819050919050565b600067ffffffffffffffff82169050919050565b600060ff82169050919050565b600061579b826157a2565b9050919050565b60006157ad82615745565b9050919050565b60006157bf82615728565b9050919050565b60006157d96157d48361573b565b6159e6565b9050919050565b60006157eb8261576f565b9050919050565b82818337600083830152505050565b60005b8381101561581f578082015181840152602081019050615804565b8381111561582e576000848401525b50505050565b6000600282049050600182168061584c57607f821691505b602082108114156158605761585f615977565b5b50919050565b61586f826159d5565b810181811067ffffffffffffffff8211171561588e5761588d6159a6565b5b80604052505050565b60006158a282615765565b91507fffffffffffffffffffffffffffffffffffffffffffffffffffffffffffffffff8214156158d5576158d46158ea565b5b600182019050919050565b6000819050919050565b7f4e487b7100000000000000000000000000000000000000000000000000000000600052601160045260246000fd5b7f4e487b7100000000000000000000000000000000000000000000000000000000600052601260045260246000fd5b7f4e487b7100000000000000000000000000000000000000000000000000000000600052602160045260246000fd5b7f4e487b7100000000000000000000000000000000000000000000000000000000600052602260045260246000fd5b7f4e487b7100000000000000000000000000000000000000000000000000000000600052604160045260246000fd5b6000601f19601f8301169050919050565b60008160001b9050919050565b7f45434453413a20696e76616c6964207369676e61747572650000000000000000600082015250565b7f476f7665726e6f723a206f6e6c79476f7665726e616e63650000000000000000600082015250565b7f476f7665726e6f72566f74657351756f72756d4672616374696f6e3a2071756f60008201527f72756d4e756d657261746f72206f7665722071756f72756d44656e6f6d696e6160208201527f746f720000000000000000000000000000000000000000000000000000000000604082015250565b7f45434453413a20696e76616c6964207369676e6174757265206c656e67746800600082015250565b7f1901000000000000000000000000000000000000000000000000000000000000600082015250565b7f476f7665726e6f723a20696e76616c69642070726f706f73616c206c656e677460008201527f6800000000000000000000000000000000000000000000000000000000000000602082015250565b7f45434453413a20696e76616c6964207369676e6174757265202773272076616c60008201527f7565000000000000000000000000000000000000000000000000000000000000602082015250565b7f476f7665726e6f72566f74696e6753696d706c653a20766f746520616c72656160008201527f6479206361737400000000000000000000000000000000000000000000000000602082015250565b7f416464726573733a20696e73756666696369656e742062616c616e636520666f60008201527f722063616c6c0000000000000000000000000000000000000000000000000000602082015250565b7f476f7665726e6f723a20766f7465206e6f742063757272656e746c792061637460008201527f6976650000000000000000000000000000000000000000000000000000000000602082015250565b7f476f7665726e6f723a20656d7074792070726f706f73616c0000000000000000600082015250565b7f45434453413a20696e76616c6964207369676e6174757265202776272076616c60008201527f7565000000000000000000000000000000000000000000000000000000000000602082015250565b7f53616665436173743a2076616c756520646f65736e27742066697420696e203660008201527f3420626974730000000000000000000000000000000000000000000000000000602082015250565b7f476f7665726e6f723a2070726f706f73616c206e6f742073756363657373667560008201527f6c00000000000000000000000000000000000000000000000000000000000000602082015250565b7f476f7665726e6f723a20756e6b6e6f776e2070726f706f73616c206964000000600082015250565b7f476f7665726e6f72566f74696e6753696d706c653a20696e76616c696420766160008201527f6c756520666f7220656e756d20566f7465547970650000000000000000000000602082015250565b7f476f7665726e6f723a2070726f706f73616c20616c726561647920657869737460008201527f7300000000000000000000000000000000000000000000000000000000000000602082015250565b7f416464726573733a2063616c6c20746f206e6f6e2d636f6e7472616374000000600082015250565b7f476f7665726e6f723a2070726f706f73657220766f7465732062656c6f77207060008201527f726f706f73616c207468726573686f6c64000000000000000000000000000000602082015250565b60088110615efd57615efc615948565b5b50565b615f09816156b0565b8114615f1457600080fd5b50565b615f20816156d4565b8114615f2b57600080fd5b50565b615f37816156e0565b8114615f4257600080fd5b50565b615f4e816156ea565b8114615f5957600080fd5b50565b615f6581615716565b8114615f7057600080fd5b50565b615f7c81615765565b8114615f8757600080fd5b50565b615f9381615783565b8114615f9e57600080fd5b5056fe416464726573733a206c6f772d6c6576656c2063616c6c20776974682076616c7565206661696c6564a264697066735822122033a6a6bd4b4045b33cf909011ddfb2baff07c4224858d85d47c58539dbaba9b864736f6c63430008040033",
  "linkReferences": {},
  "deployedLinkReferences": {}
}