{
  "_format": "hh-sol-artifact-1",
  "contractName": "Token",
  "sourceName": "contracts/Token.sol",
  "abi": [
    {
      "inputs": [
        {
          "internalType": "string",
          "name": "_name",
          "type": "string"
        },
        {
          "internalType": "string",
          "name": "_symbol",
          "type": "string"
        },
        {
          "internalType": "uint256",
          "name": "_initialSupply",
          "type": "uint256"
        }
      ],
      "stateMutability": "nonpayable",
      "type": "constructor"
    },
    {
      "anonymous": false,
      "inputs": [
        {
          "indexed": true,
          "internalType": "address",
          "name": "owner",
          "type": "address"
        },
        {
          "indexed": true,
          "internalType": "address",
          "name": "spender",
          "type": "address"
        },
        {
          "indexed": false,
          "internalType": "uint256",
          "name": "value",
          "type": "uint256"
        }
      ],
      "name": "Approval",
      "type": "event"
    },
    {
      "anonymous": false,
      "inputs": [
        {
          "indexed": true,
          "internalType": "address",
          "name": "delegator",
          "type": "address"
        },
        {
          "indexed": true,
          "internalType": "address",
          "name": "fromDelegate",
          "type": "address"
        },
        {
          "indexed": true,
          "internalType": "address",
          "name": "toDelegate",
          "type": "address"
        }
      ],
      "name": "DelegateChanged",
      "type": "event"
    },
    {
      "anonymous": false,
      "inputs": [
        {
          "indexed": true,
          "internalType": "address",
          "name": "delegate",
          "type": "address"
        },
        {
          "indexed": false,
          "internalType": "uint256",
          "name": "previousBalance",
          "type": "uint256"
        },
        {
          "indexed": false,
          "internalType": "uint256",
          "name": "newBalance",
          "type": "uint256"
        }
      ],
      "name": "DelegateVotesChanged",
      "type": "event"
    },
    {
      "anonymous": false,
      "inputs": [
        {
          "indexed": true,
          "internalType": "address",
          "name": "from",
          "type": "address"
        },
        {
          "indexed": true,
          "internalType": "address",
          "name": "to",
          "type": "address"
        },
        {
          "indexed": false,
          "internalType": "uint256",
          "name": "value",
          "type": "uint256"
        }
      ],
      "name": "Transfer",
      "type": "event"
    },
    {
      "inputs": [],
      "name": "DOMAIN_SEPARATOR",
      "outputs": [
        {
          "internalType": "bytes32",
          "name": "",
          "type": "bytes32"
        }
      ],
      "stateMutability": "view",
      "type": "function"
    },
    {
      "inputs": [
        {
          "internalType": "address",
          "name": "owner",
          "type": "address"
        },
        {
          "internalType": "address",
          "name": "spender",
          "type": "address"
        }
      ],
      "name": "allowance",
      "outputs": [
        {
          "internalType": "uint256",
          "name": "",
          "type": "uint256"
        }
      ],
      "stateMutability": "view",
      "type": "function"
    },
    {
      "inputs": [
        {
          "internalType": "address",
          "name": "spender",
          "type": "address"
        },
        {
          "internalType": "uint256",
          "name": "amount",
          "type": "uint256"
        }
      ],
      "name": "approve",
      "outputs": [
        {
          "internalType": "bool",
          "name": "",
          "type": "bool"
        }
      ],
      "stateMutability": "nonpayable",
      "type": "function"
    },
    {
      "inputs": [
        {
          "internalType": "address",
          "name": "account",
          "type": "address"
        }
      ],
      "name": "balanceOf",
      "outputs": [
        {
          "internalType": "uint256",
          "name": "",
          "type": "uint256"
        }
      ],
      "stateMutability": "view",
      "type": "function"
    },
    {
      "inputs": [
        {
          "internalType": "address",
          "name": "account",
          "type": "address"
        },
        {
          "internalType": "uint32",
          "name": "pos",
          "type": "uint32"
        }
      ],
      "name": "checkpoints",
      "outputs": [
        {
          "components": [
            {
              "internalType": "uint32",
              "name": "fromBlock",
              "type": "uint32"
            },
            {
              "internalType": "uint224",
              "name": "votes",
              "type": "uint224"
            }
          ],
          "internalType": "struct ERC20Votes.Checkpoint",
          "name": "",
          "type": "tuple"
        }
      ],
      "stateMutability": "view",
      "type": "function"
    },
    {
      "inputs": [],
      "name": "decimals",
      "outputs": [
        {
          "internalType": "uint8",
          "name": "",
          "type": "uint8"
        }
      ],
      "stateMutability": "view",
      "type": "function"
    },
    {
      "inputs": [
        {
          "internalType": "address",
          "name": "spender",
          "type": "address"
        },
        {
          "internalType": "uint256",
          "name": "subtractedValue",
          "type": "uint256"
        }
      ],
      "name": "decreaseAllowance",
      "outputs": [
        {
          "internalType": "bool",
          "name": "",
          "type": "bool"
        }
      ],
      "stateMutability": "nonpayable",
      "type": "function"
    },
    {
      "inputs": [
        {
          "internalType": "address",
          "name": "delegatee",
          "type": "address"
        }
      ],
      "name": "delegate",
      "outputs": [],
      "stateMutability": "nonpayable",
      "type": "function"
    },
    {
      "inputs": [
        {
          "internalType": "address",
          "name": "delegatee",
          "type": "address"
        },
        {
          "internalType": "uint256",
          "name": "nonce",
          "type": "uint256"
        },
        {
          "internalType": "uint256",
          "name": "expiry",
          "type": "uint256"
        },
        {
          "internalType": "uint8",
          "name": "v",
          "type": "uint8"
        },
        {
          "internalType": "bytes32",
          "name": "r",
          "type": "bytes32"
        },
        {
          "internalType": "bytes32",
          "name": "s",
          "type": "bytes32"
        }
      ],
      "name": "delegateBySig",
      "outputs": [],
      "stateMutability": "nonpayable",
      "type": "function"
    },
    {
      "inputs": [
        {
          "internalType": "address",
          "name": "account",
          "type": "address"
        }
      ],
      "name": "delegates",
      "outputs": [
        {
          "internalType": "address",
          "name": "",
          "type": "address"
        }
      ],
      "stateMutability": "view",
      "type": "function"
    },
    {
      "inputs": [
        {
          "internalType": "uint256",
          "name": "blockNumber",
          "type": "uint256"
        }
      ],
      "name": "getPastTotalSupply",
      "outputs": [
        {
          "internalType": "uint256",
          "name": "",
          "type": "uint256"
        }
      ],
      "stateMutability": "view",
      "type": "function"
    },
    {
      "inputs": [
        {
          "internalType": "address",
          "name": "account",
          "type": "address"
        },
        {
          "internalType": "uint256",
          "name": "blockNumber",
          "type": "uint256"
        }
      ],
      "name": "getPastVotes",
      "outputs": [
        {
          "internalType": "uint256",
          "name": "",
          "type": "uint256"
        }
      ],
      "stateMutability": "view",
      "type": "function"
    },
    {
      "inputs": [
        {
          "internalType": "address",
          "name": "account",
          "type": "address"
        }
      ],
      "name": "getVotes",
      "outputs": [
        {
          "internalType": "uint256",
          "name": "",
          "type": "uint256"
        }
      ],
      "stateMutability": "view",
      "type": "function"
    },
    {
      "inputs": [
        {
          "internalType": "address",
          "name": "spender",
          "type": "address"
        },
        {
          "internalType": "uint256",
          "name": "addedValue",
          "type": "uint256"
        }
      ],
      "name": "increaseAllowance",
      "outputs": [
        {
          "internalType": "bool",
          "name": "",
          "type": "bool"
        }
      ],
      "stateMutability": "nonpayable",
      "type": "function"
    },
    {
      "inputs": [],
      "name": "name",
      "outputs": [
        {
          "internalType": "string",
          "name": "",
          "type": "string"
        }
      ],
      "stateMutability": "view",
      "type": "function"
    },
    {
      "inputs": [
        {
          "internalType": "address",
          "name": "owner",
          "type": "address"
        }
      ],
      "name": "nonces",
      "outputs": [
        {
          "internalType": "uint256",
          "name": "",
          "type": "uint256"
        }
      ],
      "stateMutability": "view",
      "type": "function"
    },
    {
      "inputs": [
        {
          "internalType": "address",
          "name": "account",
          "type": "address"
        }
      ],
      "name": "numCheckpoints",
      "outputs": [
        {
          "internalType": "uint32",
          "name": "",
          "type": "uint32"
        }
      ],
      "stateMutability": "view",
      "type": "function"
    },
    {
      "inputs": [
        {
          "internalType": "address",
          "name": "owner",
          "type": "address"
        },
        {
          "internalType": "address",
          "name": "spender",
          "type": "address"
        },
        {
          "internalType": "uint256",
          "name": "value",
          "type": "uint256"
        },
        {
          "internalType": "uint256",
          "name": "deadline",
          "type": "uint256"
        },
        {
          "internalType": "uint8",
          "name": "v",
          "type": "uint8"
        },
        {
          "internalType": "bytes32",
          "name": "r",
          "type": "bytes32"
        },
        {
          "internalType": "bytes32",
          "name": "s",
          "type": "bytes32"
        }
      ],
      "name": "permit",
      "outputs": [],
      "stateMutability": "nonpayable",
      "type": "function"
    },
    {
      "inputs": [],
      "name": "symbol",
      "outputs": [
        {
          "internalType": "string",
          "name": "",
          "type": "string"
        }
      ],
      "stateMutability": "view",
      "type": "function"
    },
    {
      "inputs": [],
      "name": "totalSupply",
      "outputs": [
        {
          "internalType": "uint256",
          "name": "",
          "type": "uint256"
        }
      ],
      "stateMutability": "view",
      "type": "function"
    },
    {
      "inputs": [
        {
          "internalType": "address",
          "name": "to",
          "type": "address"
        },
        {
          "internalType": "uint256",
          "name": "amount",
          "type": "uint256"
        }
      ],
      "name": "transfer",
      "outputs": [
        {
          "internalType": "bool",
          "name": "",
          "type": "bool"
        }
      ],
      "stateMutability": "nonpayable",
      "type": "function"
    },
    {
      "inputs": [
        {
          "internalType": "address",
          "name": "from",
          "type": "address"
        },
        {
          "internalType": "address",
          "name": "to",
          "type": "address"
        },
        {
          "internalType": "uint256",
          "name": "amount",
          "type": "uint256"
        }
      ],
      "name": "transferFrom",
      "outputs": [
        {
          "internalType": "bool",
          "name": "",
          "type": "bool"
        }
      ],
      "stateMutability": "nonpayable",
      "type": "function"
    }
  ],
  "bytecode": "0x6101406040523480156200001257600080fd5b5060405162004c4b38038062004c4b833981810160405281019062000038919062000c80565b82806040518060400160405280600181526020017f3100000000000000000000000000000000000000000000000000000000000000815250858581600390805190602001906200008a92919062000b47565b508060049080519060200190620000a392919062000b47565b50505060008280519060200120905060008280519060200120905060007f8b73c3c69bb8fe3d512ecc4cf759cc79239f7b179b0ffacaa9a75d522b39400f90508260e081815250508161010081815250504660a081815250506200010f8184846200017760201b60201c565b608081815250503073ffffffffffffffffffffffffffffffffffffffff1660c08173ffffffffffffffffffffffffffffffffffffffff1660601b815250508061012081815250505050505050506200016e3382620001b360201b60201c565b505050620012c6565b600083838346306040516020016200019495949392919062000dd7565b6040516020818303038152906040528051906020012090509392505050565b620001ca8282620001ce60201b62000ec71760201c565b5050565b620001e582826200028c60201b62000f541760201c565b620001f56200040560201b60201c565b7bffffffffffffffffffffffffffffffffffffffffffffffffffffffff16620002236200042960201b60201c565b111562000267576040517f08c379a00000000000000000000000000000000000000000000000000000000081526004016200025e9062000e34565b60405180910390fd5b6200028660096200043360201b620010b417836200044b60201b60201c565b50505050565b600073ffffffffffffffffffffffffffffffffffffffff168273ffffffffffffffffffffffffffffffffffffffff161415620002ff576040517f08c379a0000000000000000000000000000000000000000000000000000000008152600401620002f69062000e9a565b60405180910390fd5b62000313600083836200076860201b60201c565b806002600082825462000327919062000f76565b92505081905550806000808473ffffffffffffffffffffffffffffffffffffffff1673ffffffffffffffffffffffffffffffffffffffff16815260200190815260200160002060008282546200037e919062000f76565b925050819055508173ffffffffffffffffffffffffffffffffffffffff16600073ffffffffffffffffffffffffffffffffffffffff167fddf252ad1be2c89b69c2b068fc378daa952ba7f163c4a11628f55a4df523b3ef83604051620003e5919062000ebc565b60405180910390a362000401600083836200076d60201b60201c565b5050565b60007bffffffffffffffffffffffffffffffffffffffffffffffffffffffff905090565b6000600254905090565b6000818362000443919062000f76565b905092915050565b60008060008580549050905060008114620004e4578560018262000470919062000fd3565b81548110620004a8577f4e487b7100000000000000000000000000000000000000000000000000000000600052603260045260246000fd5b9060005260206000200160000160049054906101000a90047bffffffffffffffffffffffffffffffffffffffffffffffffffffffff16620004e7565b60005b7bffffffffffffffffffffffffffffffffffffffffffffffffffffffff1692506200051383858760201c565b9150600081118015620005905750438660018362000532919062000fd3565b815481106200056a577f4e487b7100000000000000000000000000000000000000000000000000000000600052603260045260246000fd5b9060005260206000200160000160009054906101000a900463ffffffff1663ffffffff16145b156200065557620005ac826200078a60201b620010ca1760201c565b86600183620005bc919062000fd3565b81548110620005f4577f4e487b7100000000000000000000000000000000000000000000000000000000600052603260045260246000fd5b9060005260206000200160000160046101000a8154817bffffffffffffffffffffffffffffffffffffffffffffffffffffffff02191690837bffffffffffffffffffffffffffffffffffffffffffffffffffffffff1602179055506200075f565b8560405180604001604052806200067743620007f860201b620011351760201c565b63ffffffff16815260200162000698856200078a60201b620010ca1760201c565b7bffffffffffffffffffffffffffffffffffffffffffffffffffffffff168152509080600181540180825580915050600190039060005260206000200160009091909190915060008201518160000160006101000a81548163ffffffff021916908363ffffffff16021790555060208201518160000160046101000a8154817bffffffffffffffffffffffffffffffffffffffffffffffffffffffff02191690837bffffffffffffffffffffffffffffffffffffffffffffffffffffffff16021790555050505b50935093915050565b505050565b620007858383836200084e60201b620011881760201c565b505050565b60007bffffffffffffffffffffffffffffffffffffffffffffffffffffffff8016821115620007f0576040517f08c379a0000000000000000000000000000000000000000000000000000000008152600401620007e79062000e56565b60405180910390fd5b819050919050565b600063ffffffff801682111562000846576040517f08c379a00000000000000000000000000000000000000000000000000000000081526004016200083d9062000e78565b60405180910390fd5b819050919050565b620008668383836200089e60201b620011b31760201c565b620008996200087b84620008a360201b60201c565b6200088c84620008a360201b60201c565b836200090c60201b60201c565b505050565b505050565b6000600760008373ffffffffffffffffffffffffffffffffffffffff1673ffffffffffffffffffffffffffffffffffffffff16815260200190815260200160002060009054906101000a900473ffffffffffffffffffffffffffffffffffffffff169050919050565b8173ffffffffffffffffffffffffffffffffffffffff168373ffffffffffffffffffffffffffffffffffffffff1614158015620009495750600081115b1562000b2a57600073ffffffffffffffffffffffffffffffffffffffff168373ffffffffffffffffffffffffffffffffffffffff161462000a3c57600080620009e3600860008773ffffffffffffffffffffffffffffffffffffffff1673ffffffffffffffffffffffffffffffffffffffff16815260200190815260200160002062000b2f60201b620011b817856200044b60201b60201c565b915091508473ffffffffffffffffffffffffffffffffffffffff167fdec2bacdd2f05b59de34da9b523dff8be42e5e38e818c82fdb0bae774387a724838360405162000a3192919062000ed9565b60405180910390a250505b600073ffffffffffffffffffffffffffffffffffffffff168273ffffffffffffffffffffffffffffffffffffffff161462000b295760008062000ad0600860008673ffffffffffffffffffffffffffffffffffffffff1673ffffffffffffffffffffffffffffffffffffffff1681526020019081526020016000206200043360201b620010b417856200044b60201b60201c565b915091508373ffffffffffffffffffffffffffffffffffffffff167fdec2bacdd2f05b59de34da9b523dff8be42e5e38e818c82fdb0bae774387a724838360405162000b1e92919062000ed9565b60405180910390a250505b5b505050565b6000818362000b3f919062000fd3565b905092915050565b82805462000b55906200108c565b90600052602060002090601f01602090048101928262000b79576000855562000bc5565b82601f1062000b9457805160ff191683800117855562000bc5565b8280016001018555821562000bc5579182015b8281111562000bc457825182559160200191906001019062000ba7565b5b50905062000bd4919062000bd8565b5090565b5b8082111562000bf357600081600090555060010162000bd9565b5090565b600062000c0e62000c088462000f2f565b62000f06565b90508281526020810184848401111562000c2757600080fd5b62000c3484828562001056565b509392505050565b600082601f83011262000c4e57600080fd5b815162000c6084826020860162000bf7565b91505092915050565b60008151905062000c7a81620012ac565b92915050565b60008060006060848603121562000c9657600080fd5b600084015167ffffffffffffffff81111562000cb157600080fd5b62000cbf8682870162000c3c565b935050602084015167ffffffffffffffff81111562000cdd57600080fd5b62000ceb8682870162000c3c565b925050604062000cfe8682870162000c69565b9150509250925092565b62000d13816200100e565b82525050565b62000d248162001022565b82525050565b600062000d3960308362000f65565b915062000d468262001196565b604082019050919050565b600062000d6060278362000f65565b915062000d6d82620011e5565b604082019050919050565b600062000d8760268362000f65565b915062000d948262001234565b604082019050919050565b600062000dae601f8362000f65565b915062000dbb8262001283565b602082019050919050565b62000dd1816200104c565b82525050565b600060a08201905062000dee600083018862000d19565b62000dfd602083018762000d19565b62000e0c604083018662000d19565b62000e1b606083018562000dc6565b62000e2a608083018462000d08565b9695505050505050565b6000602082019050818103600083015262000e4f8162000d2a565b9050919050565b6000602082019050818103600083015262000e718162000d51565b9050919050565b6000602082019050818103600083015262000e938162000d78565b9050919050565b6000602082019050818103600083015262000eb58162000d9f565b9050919050565b600060208201905062000ed3600083018462000dc6565b92915050565b600060408201905062000ef0600083018562000dc6565b62000eff602083018462000dc6565b9392505050565b600062000f1262000f25565b905062000f208282620010c2565b919050565b6000604051905090565b600067ffffffffffffffff82111562000f4d5762000f4c62001156565b5b62000f588262001185565b9050602081019050919050565b600082825260208201905092915050565b600062000f83826200104c565b915062000f90836200104c565b9250827fffffffffffffffffffffffffffffffffffffffffffffffffffffffffffffffff0382111562000fc85762000fc7620010f8565b5b828201905092915050565b600062000fe0826200104c565b915062000fed836200104c565b925082821015620010035762001002620010f8565b5b828203905092915050565b60006200101b826200102c565b9050919050565b6000819050919050565b600073ffffffffffffffffffffffffffffffffffffffff82169050919050565b6000819050919050565b60005b838110156200107657808201518184015260208101905062001059565b8381111562001086576000848401525b50505050565b60006002820490506001821680620010a557607f821691505b60208210811415620010bc57620010bb62001127565b5b50919050565b620010cd8262001185565b810181811067ffffffffffffffff82111715620010ef57620010ee62001156565b5b80604052505050565b7f4e487b7100000000000000000000000000000000000000000000000000000000600052601160045260246000fd5b7f4e487b7100000000000000000000000000000000000000000000000000000000600052602260045260246000fd5b7f4e487b7100000000000000000000000000000000000000000000000000000000600052604160045260246000fd5b6000601f19601f8301169050919050565b7f4552433230566f7465733a20746f74616c20737570706c79207269736b73206f60008201527f766572666c6f77696e6720766f74657300000000000000000000000000000000602082015250565b7f53616665436173743a2076616c756520646f65736e27742066697420696e203260008201527f3234206269747300000000000000000000000000000000000000000000000000602082015250565b7f53616665436173743a2076616c756520646f65736e27742066697420696e203360008201527f3220626974730000000000000000000000000000000000000000000000000000602082015250565b7f45524332303a206d696e7420746f20746865207a65726f206164647265737300600082015250565b620012b7816200104c565b8114620012c357600080fd5b50565b60805160a05160c05160601c60e051610100516101205161393262001319600039600061175c0152600061179e0152600061177d015260006116b2015260006117080152600061173101526139326000f3fe608060405234801561001057600080fd5b50600436106101425760003560e01c806370a08231116100b8578063a457c2d71161007c578063a457c2d7146103d9578063a9059cbb14610409578063c3cda52014610439578063d505accf14610455578063dd62ed3e14610471578063f1127ed8146104a157610142565b806370a08231146102fb5780637ecebe001461032b5780638e539e8c1461035b57806395d89b411461038b5780639ab24eb0146103a957610142565b80633644e5151161010a5780633644e51514610201578063395093511461021f5780633a46b1a81461024f578063587cde1e1461027f5780635c19a95c146102af5780636fcfff45146102cb57610142565b806306fdde0314610147578063095ea7b31461016557806318160ddd1461019557806323b872dd146101b3578063313ce567146101e3575b600080fd5b61014f6104d1565b60405161015c9190612dcd565b60405180910390f35b61017f600480360381019061017a9190612707565b610563565b60405161018c9190612c59565b60405180910390f35b61019d610586565b6040516101aa919061308a565b60405180910390f35b6101cd60048036038101906101c8919061261a565b610590565b6040516101da9190612c59565b60405180910390f35b6101eb6105bf565b6040516101f891906130e9565b60405180910390f35b6102096105c8565b6040516102169190612c74565b60405180910390f35b61023960048036038101906102349190612707565b6105d7565b6040516102469190612c59565b60405180910390f35b61026960048036038101906102649190612707565b61060e565b604051610276919061308a565b60405180910390f35b610299600480360381019061029491906125b5565b6106a2565b6040516102a69190612c3e565b60405180910390f35b6102c960048036038101906102c491906125b5565b61070b565b005b6102e560048036038101906102e091906125b5565b61071f565b6040516102f291906130ce565b60405180910390f35b610315600480360381019061031091906125b5565b610773565b604051610322919061308a565b60405180910390f35b610345600480360381019061034091906125b5565b6107bb565b604051610352919061308a565b60405180910390f35b61037560048036038101906103709190612808565b61080b565b604051610382919061308a565b60405180910390f35b610393610861565b6040516103a09190612dcd565b60405180910390f35b6103c360048036038101906103be91906125b5565b6108f3565b6040516103d0919061308a565b60405180910390f35b6103f360048036038101906103ee9190612707565b610a2a565b6040516104009190612c59565b60405180910390f35b610423600480360381019061041e9190612707565b610aa1565b6040516104309190612c59565b60405180910390f35b610453600480360381019061044e9190612743565b610ac4565b005b61046f600480360381019061046a9190612669565b610bc8565b005b61048b600480360381019061048691906125de565b610d0a565b604051610498919061308a565b60405180910390f35b6104bb60048036038101906104b691906127cc565b610d91565b6040516104c8919061306f565b60405180910390f35b6060600380546104e0906132b0565b80601f016020809104026020016040519081016040528092919081815260200182805461050c906132b0565b80156105595780601f1061052e57610100808354040283529160200191610559565b820191906000526020600020905b81548152906001019060200180831161053c57829003601f168201915b5050505050905090565b60008061056e6111ce565b905061057b8185856111d6565b600191505092915050565b6000600254905090565b60008061059b6111ce565b90506105a88582856113a1565b6105b385858561142d565b60019150509392505050565b60006012905090565b60006105d26116ae565b905090565b6000806105e26111ce565b90506106038185856105f48589610d0a565b6105fe919061312b565b6111d6565b600191505092915050565b6000438210610652576040517f08c379a000000000000000000000000000000000000000000000000000000000815260040161064990612e2f565b60405180910390fd5b61069a600860008573ffffffffffffffffffffffffffffffffffffffff1673ffffffffffffffffffffffffffffffffffffffff168152602001908152602001600020836117c8565b905092915050565b6000600760008373ffffffffffffffffffffffffffffffffffffffff1673ffffffffffffffffffffffffffffffffffffffff16815260200190815260200160002060009054906101000a900473ffffffffffffffffffffffffffffffffffffffff169050919050565b61071c6107166111ce565b82611920565b50565b600061076c600860008473ffffffffffffffffffffffffffffffffffffffff1673ffffffffffffffffffffffffffffffffffffffff16815260200190815260200160002080549050611135565b9050919050565b60008060008373ffffffffffffffffffffffffffffffffffffffff1673ffffffffffffffffffffffffffffffffffffffff168152602001908152602001600020549050919050565b6000610804600560008473ffffffffffffffffffffffffffffffffffffffff1673ffffffffffffffffffffffffffffffffffffffff168152602001908152602001600020611a3a565b9050919050565b600043821061084f576040517f08c379a000000000000000000000000000000000000000000000000000000000815260040161084690612e2f565b60405180910390fd5b61085a6009836117c8565b9050919050565b606060048054610870906132b0565b80601f016020809104026020016040519081016040528092919081815260200182805461089c906132b0565b80156108e95780601f106108be576101008083540402835291602001916108e9565b820191906000526020600020905b8154815290600101906020018083116108cc57829003601f168201915b5050505050905090565b600080600860008473ffffffffffffffffffffffffffffffffffffffff1673ffffffffffffffffffffffffffffffffffffffff16815260200190815260200160002080549050905060008114610a0157600860008473ffffffffffffffffffffffffffffffffffffffff1673ffffffffffffffffffffffffffffffffffffffff16815260200190815260200160002060018261098f91906131b2565b815481106109c6577f4e487b7100000000000000000000000000000000000000000000000000000000600052603260045260246000fd5b9060005260206000200160000160049054906101000a90047bffffffffffffffffffffffffffffffffffffffffffffffffffffffff16610a04565b60005b7bffffffffffffffffffffffffffffffffffffffffffffffffffffffff16915050919050565b600080610a356111ce565b90506000610a438286610d0a565b905083811015610a88576040517f08c379a0000000000000000000000000000000000000000000000000000000008152600401610a7f9061302f565b60405180910390fd5b610a9582868684036111d6565b60019250505092915050565b600080610aac6111ce565b9050610ab981858561142d565b600191505092915050565b83421115610b07576040517f08c379a0000000000000000000000000000000000000000000000000000000008152600401610afe90612e4f565b60405180910390fd5b6000610b69610b617fe48329057bfd03d55e49b547132e39cffd9c1820ad7b9d4c5307691425d15adf898989604051602001610b469493929190612cf0565b60405160208183030381529060405280519060200120611a48565b858585611a62565b9050610b7481611a8d565b8614610bb5576040517f08c379a0000000000000000000000000000000000000000000000000000000008152600401610bac90612e8f565b60405180910390fd5b610bbf8188611920565b50505050505050565b83421115610c0b576040517f08c379a0000000000000000000000000000000000000000000000000000000008152600401610c0290612eef565b60405180910390fd5b60007f6e71edae12b1b97f4d1f60370fef10105fa2faae0126114a169c64845d6126c9888888610c3a8c611a8d565b89604051602001610c5096959493929190612c8f565b6040516020818303038152906040528051906020012090506000610c7382611a48565b90506000610c8382878787611a62565b90508973ffffffffffffffffffffffffffffffffffffffff168173ffffffffffffffffffffffffffffffffffffffff1614610cf3576040517f08c379a0000000000000000000000000000000000000000000000000000000008152600401610cea90612f6f565b60405180910390fd5b610cfe8a8a8a6111d6565b50505050505050505050565b6000600160008473ffffffffffffffffffffffffffffffffffffffff1673ffffffffffffffffffffffffffffffffffffffff16815260200190815260200160002060008373ffffffffffffffffffffffffffffffffffffffff1673ffffffffffffffffffffffffffffffffffffffff16815260200190815260200160002054905092915050565b610d9961250e565b600860008473ffffffffffffffffffffffffffffffffffffffff1673ffffffffffffffffffffffffffffffffffffffff1681526020019081526020016000208263ffffffff1681548110610e16577f4e487b7100000000000000000000000000000000000000000000000000000000600052603260045260246000fd5b906000526020600020016040518060400160405290816000820160009054906101000a900463ffffffff1663ffffffff1663ffffffff1681526020016000820160049054906101000a90047bffffffffffffffffffffffffffffffffffffffffffffffffffffffff167bffffffffffffffffffffffffffffffffffffffffffffffffffffffff167bffffffffffffffffffffffffffffffffffffffffffffffffffffffff1681525050905092915050565b610ed18282610f54565b610ed9611aeb565b7bffffffffffffffffffffffffffffffffffffffffffffffffffffffff16610eff610586565b1115610f40576040517f08c379a0000000000000000000000000000000000000000000000000000000008152600401610f3790612f8f565b60405180910390fd5b610f4e60096110b483611b0f565b50505050565b600073ffffffffffffffffffffffffffffffffffffffff168273ffffffffffffffffffffffffffffffffffffffff161415610fc4576040517f08c379a0000000000000000000000000000000000000000000000000000000008152600401610fbb9061304f565b60405180910390fd5b610fd060008383611df9565b8060026000828254610fe2919061312b565b92505081905550806000808473ffffffffffffffffffffffffffffffffffffffff1673ffffffffffffffffffffffffffffffffffffffff1681526020019081526020016000206000828254611037919061312b565b925050819055508173ffffffffffffffffffffffffffffffffffffffff16600073ffffffffffffffffffffffffffffffffffffffff167fddf252ad1be2c89b69c2b068fc378daa952ba7f163c4a11628f55a4df523b3ef8360405161109c919061308a565b60405180910390a36110b060008383611dfe565b5050565b600081836110c2919061312b565b905092915050565b60007bffffffffffffffffffffffffffffffffffffffffffffffffffffffff801682111561112d576040517f08c379a000000000000000000000000000000000000000000000000000000000815260040161112490612faf565b60405180910390fd5b819050919050565b600063ffffffff8016821115611180576040517f08c379a000000000000000000000000000000000000000000000000000000000815260040161117790612fef565b60405180910390fd5b819050919050565b6111938383836111b3565b6111ae61119f846106a2565b6111a8846106a2565b83611e0e565b505050565b505050565b600081836111c691906131b2565b905092915050565b600033905090565b600073ffffffffffffffffffffffffffffffffffffffff168373ffffffffffffffffffffffffffffffffffffffff161415611246576040517f08c379a000000000000000000000000000000000000000000000000000000000815260040161123d9061300f565b60405180910390fd5b600073ffffffffffffffffffffffffffffffffffffffff168273ffffffffffffffffffffffffffffffffffffffff1614156112b6576040517f08c379a00000000000000000000000000000000000000000000000000000000081526004016112ad90612eaf565b60405180910390fd5b80600160008573ffffffffffffffffffffffffffffffffffffffff1673ffffffffffffffffffffffffffffffffffffffff16815260200190815260200160002060008473ffffffffffffffffffffffffffffffffffffffff1673ffffffffffffffffffffffffffffffffffffffff168152602001908152602001600020819055508173ffffffffffffffffffffffffffffffffffffffff168373ffffffffffffffffffffffffffffffffffffffff167f8c5be1e5ebec7d5bd14f71427d1e84f3dd0314c0f7b2291e5b200ac8c7c3b92583604051611394919061308a565b60405180910390a3505050565b60006113ad8484610d0a565b90507fffffffffffffffffffffffffffffffffffffffffffffffffffffffffffffffff81146114275781811015611419576040517f08c379a000000000000000000000000000000000000000000000000000000000815260040161141090612ecf565b60405180910390fd5b61142684848484036111d6565b5b50505050565b600073ffffffffffffffffffffffffffffffffffffffff168373ffffffffffffffffffffffffffffffffffffffff16141561149d576040517f08c379a000000000000000000000000000000000000000000000000000000000815260040161149490612fcf565b60405180910390fd5b600073ffffffffffffffffffffffffffffffffffffffff168273ffffffffffffffffffffffffffffffffffffffff16141561150d576040517f08c379a000000000000000000000000000000000000000000000000000000000815260040161150490612e0f565b60405180910390fd5b611518838383611df9565b60008060008573ffffffffffffffffffffffffffffffffffffffff1673ffffffffffffffffffffffffffffffffffffffff1681526020019081526020016000205490508181101561159e576040517f08c379a000000000000000000000000000000000000000000000000000000000815260040161159590612f0f565b60405180910390fd5b8181036000808673ffffffffffffffffffffffffffffffffffffffff1673ffffffffffffffffffffffffffffffffffffffff16815260200190815260200160002081905550816000808573ffffffffffffffffffffffffffffffffffffffff1673ffffffffffffffffffffffffffffffffffffffff1681526020019081526020016000206000828254611631919061312b565b925050819055508273ffffffffffffffffffffffffffffffffffffffff168473ffffffffffffffffffffffffffffffffffffffff167fddf252ad1be2c89b69c2b068fc378daa952ba7f163c4a11628f55a4df523b3ef84604051611695919061308a565b60405180910390a36116a8848484611dfe565b50505050565b60007f000000000000000000000000000000000000000000000000000000000000000073ffffffffffffffffffffffffffffffffffffffff163073ffffffffffffffffffffffffffffffffffffffff1614801561172a57507f000000000000000000000000000000000000000000000000000000000000000046145b15611757577f000000000000000000000000000000000000000000000000000000000000000090506117c5565b6117c27f00000000000000000000000000000000000000000000000000000000000000007f00000000000000000000000000000000000000000000000000000000000000007f0000000000000000000000000000000000000000000000000000000000000000612007565b90505b90565b6000808380549050905060005b8181101561186d5760006117e98284612041565b905084868281548110611825577f4e487b7100000000000000000000000000000000000000000000000000000000600052603260045260246000fd5b9060005260206000200160000160009054906101000a900463ffffffff1663ffffffff16111561185757809250611867565b600181611864919061312b565b91505b506117d5565b600082146118f5578460018361188391906131b2565b815481106118ba577f4e487b7100000000000000000000000000000000000000000000000000000000600052603260045260246000fd5b9060005260206000200160000160049054906101000a90047bffffffffffffffffffffffffffffffffffffffffffffffffffffffff166118f8565b60005b7bffffffffffffffffffffffffffffffffffffffffffffffffffffffff169250505092915050565b600061192b836106a2565b9050600061193884610773565b905082600760008673ffffffffffffffffffffffffffffffffffffffff1673ffffffffffffffffffffffffffffffffffffffff16815260200190815260200160002060006101000a81548173ffffffffffffffffffffffffffffffffffffffff021916908373ffffffffffffffffffffffffffffffffffffffff1602179055508273ffffffffffffffffffffffffffffffffffffffff168273ffffffffffffffffffffffffffffffffffffffff168573ffffffffffffffffffffffffffffffffffffffff167f3134e8a2e6d97e929a7e54011ea5485d7d196dd5f0ba4d4ef95803e8e3fc257f60405160405180910390a4611a34828483611e0e565b50505050565b600081600001549050919050565b6000611a5b611a556116ae565b83612067565b9050919050565b6000806000611a738787878761209a565b91509150611a80816121a7565b8192505050949350505050565b600080600560008473ffffffffffffffffffffffffffffffffffffffff1673ffffffffffffffffffffffffffffffffffffffff1681526020019081526020016000209050611ada81611a3a565b9150611ae5816124f8565b50919050565b60007bffffffffffffffffffffffffffffffffffffffffffffffffffffffff905090565b60008060008580549050905060008114611ba35785600182611b3191906131b2565b81548110611b68577f4e487b7100000000000000000000000000000000000000000000000000000000600052603260045260246000fd5b9060005260206000200160000160049054906101000a90047bffffffffffffffffffffffffffffffffffffffffffffffffffffffff16611ba6565b60005b7bffffffffffffffffffffffffffffffffffffffffffffffffffffffff169250611bd483858763ffffffff16565b9150600081118015611c4d57504386600183611bf091906131b2565b81548110611c27577f4e487b7100000000000000000000000000000000000000000000000000000000600052603260045260246000fd5b9060005260206000200160000160009054906101000a900463ffffffff1663ffffffff16145b15611d0057611c5b826110ca565b86600183611c6991906131b2565b81548110611ca0577f4e487b7100000000000000000000000000000000000000000000000000000000600052603260045260246000fd5b9060005260206000200160000160046101000a8154817bffffffffffffffffffffffffffffffffffffffffffffffffffffffff02191690837bffffffffffffffffffffffffffffffffffffffffffffffffffffffff160217905550611df0565b856040518060400160405280611d1543611135565b63ffffffff168152602001611d29856110ca565b7bffffffffffffffffffffffffffffffffffffffffffffffffffffffff168152509080600181540180825580915050600190039060005260206000200160009091909190915060008201518160000160006101000a81548163ffffffff021916908363ffffffff16021790555060208201518160000160046101000a8154817bffffffffffffffffffffffffffffffffffffffffffffffffffffffff02191690837bffffffffffffffffffffffffffffffffffffffffffffffffffffffff16021790555050505b50935093915050565b505050565b611e09838383611188565b505050565b8173ffffffffffffffffffffffffffffffffffffffff168373ffffffffffffffffffffffffffffffffffffffff1614158015611e4a5750600081115b1561200257600073ffffffffffffffffffffffffffffffffffffffff168373ffffffffffffffffffffffffffffffffffffffff1614611f2857600080611ed1600860008773ffffffffffffffffffffffffffffffffffffffff1673ffffffffffffffffffffffffffffffffffffffff1681526020019081526020016000206111b885611b0f565b915091508473ffffffffffffffffffffffffffffffffffffffff167fdec2bacdd2f05b59de34da9b523dff8be42e5e38e818c82fdb0bae774387a7248383604051611f1d9291906130a5565b60405180910390a250505b600073ffffffffffffffffffffffffffffffffffffffff168273ffffffffffffffffffffffffffffffffffffffff161461200157600080611faa600860008673ffffffffffffffffffffffffffffffffffffffff1673ffffffffffffffffffffffffffffffffffffffff1681526020019081526020016000206110b485611b0f565b915091508373ffffffffffffffffffffffffffffffffffffffff167fdec2bacdd2f05b59de34da9b523dff8be42e5e38e818c82fdb0bae774387a7248383604051611ff69291906130a5565b60405180910390a250505b5b505050565b60008383834630604051602001612022959493929190612d35565b6040516020818303038152906040528051906020012090509392505050565b600060028284186120529190613181565b82841661205f919061312b565b905092915050565b6000828260405160200161207c929190612c07565b60405160208183030381529060405280519060200120905092915050565b6000807f7fffffffffffffffffffffffffffffff5d576e7357a4501ddfe92f46681b20a08360001c11156120d557600060039150915061219e565b601b8560ff16141580156120ed5750601c8560ff1614155b156120ff57600060049150915061219e565b6000600187878787604051600081526020016040526040516121249493929190612d88565b6020604051602081039080840390855afa158015612146573d6000803e3d6000fd5b505050602060405103519050600073ffffffffffffffffffffffffffffffffffffffff168173ffffffffffffffffffffffffffffffffffffffff1614156121955760006001925092505061219e565b80600092509250505b94509492505050565b600060048111156121e1577f4e487b7100000000000000000000000000000000000000000000000000000000600052602160045260246000fd5b81600481111561221a577f4e487b7100000000000000000000000000000000000000000000000000000000600052602160045260246000fd5b1415612225576124f5565b6001600481111561225f577f4e487b7100000000000000000000000000000000000000000000000000000000600052602160045260246000fd5b816004811115612298577f4e487b7100000000000000000000000000000000000000000000000000000000600052602160045260246000fd5b14156122d9576040517f08c379a00000000000000000000000000000000000000000000000000000000081526004016122d090612def565b60405180910390fd5b60026004811115612313577f4e487b7100000000000000000000000000000000000000000000000000000000600052602160045260246000fd5b81600481111561234c577f4e487b7100000000000000000000000000000000000000000000000000000000600052602160045260246000fd5b141561238d576040517f08c379a000000000000000000000000000000000000000000000000000000000815260040161238490612e6f565b60405180910390fd5b600360048111156123c7577f4e487b7100000000000000000000000000000000000000000000000000000000600052602160045260246000fd5b816004811115612400577f4e487b7100000000000000000000000000000000000000000000000000000000600052602160045260246000fd5b1415612441576040517f08c379a000000000000000000000000000000000000000000000000000000000815260040161243890612f2f565b60405180910390fd5b60048081111561247a577f4e487b7100000000000000000000000000000000000000000000000000000000600052602160045260246000fd5b8160048111156124b3577f4e487b7100000000000000000000000000000000000000000000000000000000600052602160045260246000fd5b14156124f4576040517f08c379a00000000000000000000000000000000000000000000000000000000081526004016124eb90612f4f565b60405180910390fd5b5b50565b6001816000016000828254019250508190555050565b6040518060400160405280600063ffffffff16815260200160007bffffffffffffffffffffffffffffffffffffffffffffffffffffffff1681525090565b60008135905061255b81613889565b92915050565b600081359050612570816138a0565b92915050565b600081359050612585816138b7565b92915050565b60008135905061259a816138ce565b92915050565b6000813590506125af816138e5565b92915050565b6000602082840312156125c757600080fd5b60006125d58482850161254c565b91505092915050565b600080604083850312156125f157600080fd5b60006125ff8582860161254c565b92505060206126108582860161254c565b9150509250929050565b60008060006060848603121561262f57600080fd5b600061263d8682870161254c565b935050602061264e8682870161254c565b925050604061265f86828701612576565b9150509250925092565b600080600080600080600060e0888a03121561268457600080fd5b60006126928a828b0161254c565b97505060206126a38a828b0161254c565b96505060406126b48a828b01612576565b95505060606126c58a828b01612576565b94505060806126d68a828b016125a0565b93505060a06126e78a828b01612561565b92505060c06126f88a828b01612561565b91505092959891949750929550565b6000806040838503121561271a57600080fd5b60006127288582860161254c565b925050602061273985828601612576565b9150509250929050565b60008060008060008060c0878903121561275c57600080fd5b600061276a89828a0161254c565b965050602061277b89828a01612576565b955050604061278c89828a01612576565b945050606061279d89828a016125a0565b93505060806127ae89828a01612561565b92505060a06127bf89828a01612561565b9150509295509295509295565b600080604083850312156127df57600080fd5b60006127ed8582860161254c565b92505060206127fe8582860161258b565b9150509250929050565b60006020828403121561281a57600080fd5b600061282884828501612576565b91505092915050565b61283a816131e6565b82525050565b612849816131f8565b82525050565b61285881613204565b82525050565b61286f61286a82613204565b6132e2565b82525050565b600061288082613104565b61288a818561310f565b935061289a81856020860161327d565b6128a381613379565b840191505092915050565b60006128bb60188361310f565b91506128c68261338a565b602082019050919050565b60006128de60238361310f565b91506128e9826133b3565b604082019050919050565b6000612901601f8361310f565b915061290c82613402565b602082019050919050565b6000612924601d8361310f565b915061292f8261342b565b602082019050919050565b6000612947601f8361310f565b915061295282613454565b602082019050919050565b600061296a60198361310f565b91506129758261347d565b602082019050919050565b600061298d60228361310f565b9150612998826134a6565b604082019050919050565b60006129b0600283613120565b91506129bb826134f5565b600282019050919050565b60006129d3601d8361310f565b91506129de8261351e565b602082019050919050565b60006129f6601d8361310f565b9150612a0182613547565b602082019050919050565b6000612a1960268361310f565b9150612a2482613570565b604082019050919050565b6000612a3c60228361310f565b9150612a47826135bf565b604082019050919050565b6000612a5f60228361310f565b9150612a6a8261360e565b604082019050919050565b6000612a82601e8361310f565b9150612a8d8261365d565b602082019050919050565b6000612aa560308361310f565b9150612ab082613686565b604082019050919050565b6000612ac860278361310f565b9150612ad3826136d5565b604082019050919050565b6000612aeb60258361310f565b9150612af682613724565b604082019050919050565b6000612b0e60268361310f565b9150612b1982613773565b604082019050919050565b6000612b3160248361310f565b9150612b3c826137c2565b604082019050919050565b6000612b5460258361310f565b9150612b5f82613811565b604082019050919050565b6000612b77601f8361310f565b9150612b8282613860565b602082019050919050565b604082016000820151612ba36000850182612bda565b506020820151612bb66020850182612bbc565b50505050565b612bc58161322e565b82525050565b612bd481613256565b82525050565b612be381613260565b82525050565b612bf281613260565b82525050565b612c0181613270565b82525050565b6000612c12826129a3565b9150612c1e828561285e565b602082019150612c2e828461285e565b6020820191508190509392505050565b6000602082019050612c536000830184612831565b92915050565b6000602082019050612c6e6000830184612840565b92915050565b6000602082019050612c89600083018461284f565b92915050565b600060c082019050612ca4600083018961284f565b612cb16020830188612831565b612cbe6040830187612831565b612ccb6060830186612bcb565b612cd86080830185612bcb565b612ce560a0830184612bcb565b979650505050505050565b6000608082019050612d05600083018761284f565b612d126020830186612831565b612d1f6040830185612bcb565b612d2c6060830184612bcb565b95945050505050565b600060a082019050612d4a600083018861284f565b612d57602083018761284f565b612d64604083018661284f565b612d716060830185612bcb565b612d7e6080830184612831565b9695505050505050565b6000608082019050612d9d600083018761284f565b612daa6020830186612bf8565b612db7604083018561284f565b612dc4606083018461284f565b95945050505050565b60006020820190508181036000830152612de78184612875565b905092915050565b60006020820190508181036000830152612e08816128ae565b9050919050565b60006020820190508181036000830152612e28816128d1565b9050919050565b60006020820190508181036000830152612e48816128f4565b9050919050565b60006020820190508181036000830152612e6881612917565b9050919050565b60006020820190508181036000830152612e888161293a565b9050919050565b60006020820190508181036000830152612ea88161295d565b9050919050565b60006020820190508181036000830152612ec881612980565b9050919050565b60006020820190508181036000830152612ee8816129c6565b9050919050565b60006020820190508181036000830152612f08816129e9565b9050919050565b60006020820190508181036000830152612f2881612a0c565b9050919050565b60006020820190508181036000830152612f4881612a2f565b9050919050565b60006020820190508181036000830152612f6881612a52565b9050919050565b60006020820190508181036000830152612f8881612a75565b9050919050565b60006020820190508181036000830152612fa881612a98565b9050919050565b60006020820190508181036000830152612fc881612abb565b9050919050565b60006020820190508181036000830152612fe881612ade565b9050919050565b6000602082019050818103600083015261300881612b01565b9050919050565b6000602082019050818103600083015261302881612b24565b9050919050565b6000602082019050818103600083015261304881612b47565b9050919050565b6000602082019050818103600083015261306881612b6a565b9050919050565b60006040820190506130846000830184612b8d565b92915050565b600060208201905061309f6000830184612bcb565b92915050565b60006040820190506130ba6000830185612bcb565b6130c76020830184612bcb565b9392505050565b60006020820190506130e36000830184612be9565b92915050565b60006020820190506130fe6000830184612bf8565b92915050565b600081519050919050565b600082825260208201905092915050565b600081905092915050565b600061313682613256565b915061314183613256565b9250827fffffffffffffffffffffffffffffffffffffffffffffffffffffffffffffffff03821115613176576131756132ec565b5b828201905092915050565b600061318c82613256565b915061319783613256565b9250826131a7576131a661331b565b5b828204905092915050565b60006131bd82613256565b91506131c883613256565b9250828210156131db576131da6132ec565b5b828203905092915050565b60006131f18261320e565b9050919050565b60008115159050919050565b6000819050919050565b600073ffffffffffffffffffffffffffffffffffffffff82169050919050565b60007bffffffffffffffffffffffffffffffffffffffffffffffffffffffff82169050919050565b6000819050919050565b600063ffffffff82169050919050565b600060ff82169050919050565b60005b8381101561329b578082015181840152602081019050613280565b838111156132aa576000848401525b50505050565b600060028204905060018216806132c857607f821691505b602082108114156132dc576132db61334a565b5b50919050565b6000819050919050565b7f4e487b7100000000000000000000000000000000000000000000000000000000600052601160045260246000fd5b7f4e487b7100000000000000000000000000000000000000000000000000000000600052601260045260246000fd5b7f4e487b7100000000000000000000000000000000000000000000000000000000600052602260045260246000fd5b6000601f19601f8301169050919050565b7f45434453413a20696e76616c6964207369676e61747572650000000000000000600082015250565b7f45524332303a207472616e7366657220746f20746865207a65726f206164647260008201527f6573730000000000000000000000000000000000000000000000000000000000602082015250565b7f4552433230566f7465733a20626c6f636b206e6f7420796574206d696e656400600082015250565b7f4552433230566f7465733a207369676e61747572652065787069726564000000600082015250565b7f45434453413a20696e76616c6964207369676e6174757265206c656e67746800600082015250565b7f4552433230566f7465733a20696e76616c6964206e6f6e636500000000000000600082015250565b7f45524332303a20617070726f766520746f20746865207a65726f20616464726560008201527f7373000000000000000000000000000000000000000000000000000000000000602082015250565b7f1901000000000000000000000000000000000000000000000000000000000000600082015250565b7f45524332303a20696e73756666696369656e7420616c6c6f77616e6365000000600082015250565b7f45524332305065726d69743a206578706972656420646561646c696e65000000600082015250565b7f45524332303a207472616e7366657220616d6f756e742065786365656473206260008201527f616c616e63650000000000000000000000000000000000000000000000000000602082015250565b7f45434453413a20696e76616c6964207369676e6174757265202773272076616c60008201527f7565000000000000000000000000000000000000000000000000000000000000602082015250565b7f45434453413a20696e76616c6964207369676e6174757265202776272076616c60008201527f7565000000000000000000000000000000000000000000000000000000000000602082015250565b7f45524332305065726d69743a20696e76616c6964207369676e61747572650000600082015250565b7f4552433230566f7465733a20746f74616c20737570706c79207269736b73206f60008201527f766572666c6f77696e6720766f74657300000000000000000000000000000000602082015250565b7f53616665436173743a2076616c756520646f65736e27742066697420696e203260008201527f3234206269747300000000000000000000000000000000000000000000000000602082015250565b7f45524332303a207472616e736665722066726f6d20746865207a65726f20616460008201527f6472657373000000000000000000000000000000000000000000000000000000602082015250565b7f53616665436173743a2076616c756520646f65736e27742066697420696e203360008201527f3220626974730000000000000000000000000000000000000000000000000000602082015250565b7f45524332303a20617070726f76652066726f6d20746865207a65726f2061646460008201527f7265737300000000000000000000000000000000000000000000000000000000602082015250565b7f45524332303a2064656372656173656420616c6c6f77616e63652062656c6f7760008201527f207a65726f000000000000000000000000000000000000000000000000000000602082015250565b7f45524332303a206d696e7420746f20746865207a65726f206164647265737300600082015250565b613892816131e6565b811461389d57600080fd5b50565b6138a981613204565b81146138b457600080fd5b50565b6138c081613256565b81146138cb57600080fd5b50565b6138d781613260565b81146138e257600080fd5b50565b6138ee81613270565b81146138f957600080fd5b5056fea26469706673582212205118e46626c85936e78a45c4a67626d63f86580255b655a74467b791c5e3a55b64736f6c63430008040033",
  "linkReferences": {},
  "deployedLinkReferences": {}
}